{
  "_format": "hh-sol-artifact-1",
  "contractName": "DonationPlatform",
  "sourceName": "contracts/Lock.sol",
  "abi": [
    {
      "anonymous": false,
      "inputs": [
        {
          "indexed": false,
          "internalType": "uint256",
          "name": "id",
          "type": "uint256"
        },
        {
          "indexed": false,
          "internalType": "string",
          "name": "title",
          "type": "string"
        },
        {
          "indexed": false,
          "internalType": "string",
          "name": "description",
          "type": "string"
        },
        {
          "indexed": false,
          "internalType": "uint256",
          "name": "goal",
          "type": "uint256"
        },
        {
          "indexed": false,
          "internalType": "address",
          "name": "owner",
          "type": "address"
        },
        {
          "indexed": false,
          "internalType": "uint256",
          "name": "deadline",
          "type": "uint256"
        },
        {
          "indexed": false,
          "internalType": "string",
          "name": "image",
          "type": "string"
        }
      ],
      "name": "CampaignCreated",
      "type": "event"
    },
    {
      "anonymous": false,
      "inputs": [
        {
          "indexed": false,
          "internalType": "uint256",
          "name": "campaignId",
          "type": "uint256"
        },
        {
          "indexed": false,
          "internalType": "address",
          "name": "donor",
          "type": "address"
        },
        {
          "indexed": false,
          "internalType": "uint256",
          "name": "amount",
          "type": "uint256"
        },
        {
          "indexed": false,
          "internalType": "bytes32",
          "name": "txHash",
          "type": "bytes32"
        }
      ],
      "name": "DonationMade",
      "type": "event"
    },
    {
      "anonymous": false,
      "inputs": [
        {
          "indexed": false,
          "internalType": "uint256",
          "name": "campaignId",
          "type": "uint256"
        },
        {
          "indexed": false,
          "internalType": "address[]",
          "name": "recipients",
          "type": "address[]"
        },
        {
          "indexed": false,
          "internalType": "uint256[]",
          "name": "amounts",
          "type": "uint256[]"
        },
        {
          "indexed": false,
          "internalType": "bytes32[]",
          "name": "txHashes",
          "type": "bytes32[]"
        }
      ],
      "name": "FundsDistributed",
      "type": "event"
    },
    {
      "inputs": [],
      "name": "campaignCount",
      "outputs": [
        {
          "internalType": "uint256",
          "name": "",
          "type": "uint256"
        }
      ],
      "stateMutability": "view",
      "type": "function"
    },
    {
      "inputs": [
        {
          "internalType": "uint256",
          "name": "",
          "type": "uint256"
        },
        {
          "internalType": "uint256",
          "name": "",
          "type": "uint256"
        }
      ],
      "name": "campaignDonors",
      "outputs": [
        {
          "internalType": "address",
          "name": "donorAddress",
          "type": "address"
        },
        {
          "internalType": "uint256",
          "name": "amount",
          "type": "uint256"
        },
        {
          "internalType": "bytes32",
          "name": "txHash",
          "type": "bytes32"
        }
      ],
      "stateMutability": "view",
      "type": "function"
    },
    {
      "inputs": [
        {
          "internalType": "uint256",
          "name": "",
          "type": "uint256"
        },
        {
          "internalType": "uint256",
          "name": "",
          "type": "uint256"
        }
      ],
      "name": "campaignRecipients",
      "outputs": [
        {
          "internalType": "address",
          "name": "recipientAddress",
          "type": "address"
        },
        {
          "internalType": "uint256",
          "name": "amount",
          "type": "uint256"
        },
        {
          "internalType": "bytes32",
          "name": "txHash",
          "type": "bytes32"
        }
      ],
      "stateMutability": "view",
      "type": "function"
    },
    {
      "inputs": [
        {
          "internalType": "uint256",
          "name": "",
          "type": "uint256"
        }
      ],
      "name": "campaigns",
      "outputs": [
        {
          "internalType": "uint256",
          "name": "id",
          "type": "uint256"
        },
        {
          "internalType": "string",
          "name": "title",
          "type": "string"
        },
        {
          "internalType": "string",
          "name": "description",
          "type": "string"
        },
        {
          "internalType": "uint256",
          "name": "goal",
          "type": "uint256"
        },
        {
          "internalType": "uint256",
          "name": "raised",
          "type": "uint256"
        },
        {
          "internalType": "address payable",
          "name": "owner",
          "type": "address"
        },
        {
          "internalType": "bool",
          "name": "isActive",
          "type": "bool"
        },
        {
          "internalType": "uint256",
          "name": "deadline",
          "type": "uint256"
        },
        {
          "internalType": "string",
          "name": "image",
          "type": "string"
        }
      ],
      "stateMutability": "view",
      "type": "function"
    },
    {
      "inputs": [
        {
          "internalType": "string",
          "name": "_title",
          "type": "string"
        },
        {
          "internalType": "string",
          "name": "_description",
          "type": "string"
        },
        {
          "internalType": "uint256",
          "name": "_goal",
          "type": "uint256"
        },
        {
          "internalType": "address[]",
          "name": "_recipients",
          "type": "address[]"
        },
        {
          "internalType": "uint256",
          "name": "_deadline",
          "type": "uint256"
        },
        {
          "internalType": "string",
          "name": "_image",
          "type": "string"
        }
      ],
      "name": "createCampaign",
      "outputs": [],
      "stateMutability": "nonpayable",
      "type": "function"
    },
    {
      "inputs": [
        {
          "internalType": "uint256",
          "name": "_campaignId",
          "type": "uint256"
        }
      ],
      "name": "donate",
      "outputs": [],
      "stateMutability": "payable",
      "type": "function"
    },
    {
      "inputs": [],
      "name": "getAllCampaigns",
      "outputs": [
        {
          "components": [
            {
              "internalType": "uint256",
              "name": "id",
              "type": "uint256"
            },
            {
              "internalType": "string",
              "name": "title",
              "type": "string"
            },
            {
              "internalType": "string",
              "name": "description",
              "type": "string"
            },
            {
              "internalType": "uint256",
              "name": "goal",
              "type": "uint256"
            },
            {
              "internalType": "uint256",
              "name": "raised",
              "type": "uint256"
            },
            {
              "internalType": "address payable",
              "name": "owner",
              "type": "address"
            },
            {
              "internalType": "bool",
              "name": "isActive",
              "type": "bool"
            },
            {
              "internalType": "address[]",
              "name": "recipients",
              "type": "address[]"
            },
            {
              "internalType": "uint256",
              "name": "deadline",
              "type": "uint256"
            },
            {
              "internalType": "string",
              "name": "image",
              "type": "string"
            }
          ],
          "internalType": "struct DonationPlatform.Campaign[]",
          "name": "",
          "type": "tuple[]"
        }
      ],
      "stateMutability": "view",
      "type": "function"
    },
    {
      "inputs": [
        {
          "internalType": "uint256",
          "name": "_campaignId",
          "type": "uint256"
        }
      ],
      "name": "getCampaign",
      "outputs": [
        {
          "internalType": "uint256",
          "name": "id",
          "type": "uint256"
        },
        {
          "internalType": "string",
          "name": "title",
          "type": "string"
        },
        {
          "internalType": "string",
          "name": "description",
          "type": "string"
        },
        {
          "internalType": "uint256",
          "name": "goal",
          "type": "uint256"
        },
        {
          "internalType": "uint256",
          "name": "raised",
          "type": "uint256"
        },
        {
          "internalType": "address",
          "name": "owner",
          "type": "address"
        },
        {
          "internalType": "bool",
          "name": "isActive",
          "type": "bool"
        },
        {
          "internalType": "address[]",
          "name": "recipients",
          "type": "address[]"
        }
      ],
      "stateMutability": "view",
      "type": "function"
    },
    {
      "inputs": [
        {
          "internalType": "uint256",
          "name": "_campaignId",
          "type": "uint256"
        }
      ],
      "name": "getCampaignDonors",
      "outputs": [
        {
          "components": [
            {
              "internalType": "address",
              "name": "donorAddress",
              "type": "address"
            },
            {
              "internalType": "uint256",
              "name": "amount",
              "type": "uint256"
            },
            {
              "internalType": "bytes32",
              "name": "txHash",
              "type": "bytes32"
            }
          ],
          "internalType": "struct DonationPlatform.Donor[]",
          "name": "",
          "type": "tuple[]"
        }
      ],
      "stateMutability": "view",
      "type": "function"
    },
    {
      "inputs": [
        {
          "internalType": "uint256",
          "name": "_campaignId",
          "type": "uint256"
        }
      ],
      "name": "getCampaignRecipients",
      "outputs": [
        {
          "components": [
            {
              "internalType": "address",
              "name": "recipientAddress",
              "type": "address"
            },
            {
              "internalType": "uint256",
              "name": "amount",
              "type": "uint256"
            },
            {
              "internalType": "bytes32",
              "name": "txHash",
              "type": "bytes32"
            }
          ],
          "internalType": "struct DonationPlatform.Recipient[]",
          "name": "",
          "type": "tuple[]"
        }
      ],
      "stateMutability": "view",
      "type": "function"
    },
    {
      "inputs": [
        {
          "internalType": "address",
          "name": "_user",
          "type": "address"
        }
      ],
      "name": "getUserCampaigns",
      "outputs": [
        {
          "components": [
            {
              "internalType": "uint256",
              "name": "id",
              "type": "uint256"
            },
            {
              "internalType": "string",
              "name": "title",
              "type": "string"
            },
            {
              "internalType": "string",
              "name": "description",
              "type": "string"
            },
            {
              "internalType": "uint256",
              "name": "goal",
              "type": "uint256"
            },
            {
              "internalType": "uint256",
              "name": "raised",
              "type": "uint256"
            },
            {
              "internalType": "address payable",
              "name": "owner",
              "type": "address"
            },
            {
              "internalType": "bool",
              "name": "isActive",
              "type": "bool"
            },
            {
              "internalType": "address[]",
              "name": "recipients",
              "type": "address[]"
            },
            {
              "internalType": "uint256",
              "name": "deadline",
              "type": "uint256"
            },
            {
              "internalType": "string",
              "name": "image",
              "type": "string"
            }
          ],
          "internalType": "struct DonationPlatform.Campaign[]",
          "name": "",
          "type": "tuple[]"
        }
      ],
      "stateMutability": "view",
      "type": "function"
    },
    {
      "inputs": [
        {
          "internalType": "address",
          "name": "_user",
          "type": "address"
        }
      ],
      "name": "getUserDonations",
      "outputs": [
        {
          "components": [
            {
              "internalType": "uint256",
              "name": "id",
              "type": "uint256"
            },
            {
              "internalType": "string",
              "name": "title",
              "type": "string"
            },
            {
              "internalType": "string",
              "name": "description",
              "type": "string"
            },
            {
              "internalType": "uint256",
              "name": "goal",
              "type": "uint256"
            },
            {
              "internalType": "uint256",
              "name": "raised",
              "type": "uint256"
            },
            {
              "internalType": "address payable",
              "name": "owner",
              "type": "address"
            },
            {
              "internalType": "bool",
              "name": "isActive",
              "type": "bool"
            },
            {
              "internalType": "address[]",
              "name": "recipients",
              "type": "address[]"
            },
            {
              "internalType": "uint256",
              "name": "deadline",
              "type": "uint256"
            },
            {
              "internalType": "string",
              "name": "image",
              "type": "string"
            }
          ],
          "internalType": "struct DonationPlatform.Campaign[]",
          "name": "",
          "type": "tuple[]"
        }
      ],
      "stateMutability": "view",
      "type": "function"
    },
    {
      "inputs": [
        {
          "internalType": "address",
          "name": "",
          "type": "address"
        },
        {
          "internalType": "uint256",
          "name": "",
          "type": "uint256"
        }
      ],
      "name": "userCampaigns",
      "outputs": [
        {
          "internalType": "uint256",
          "name": "",
          "type": "uint256"
        }
      ],
      "stateMutability": "view",
      "type": "function"
    },
    {
      "inputs": [
        {
          "internalType": "address",
          "name": "",
          "type": "address"
        },
        {
          "internalType": "uint256",
          "name": "",
          "type": "uint256"
        }
      ],
      "name": "userDonations",
      "outputs": [
        {
          "internalType": "uint256",
          "name": "",
          "type": "uint256"
        }
      ],
      "stateMutability": "view",
      "type": "function"
    }
  ],
  "bytecode": "0x608060405234801561001057600080fd5b50613f6f806100206000396000f3fe6080604052600436106100dd5760003560e01c80635598f8cc1161007f57806386cdf6041161005957806386cdf6041461032f578063a1e5084c1461035a578063f14faf6f14610397578063f25e1e93146103b3576100dd565b80635598f8cc146102835780637274e30d146102c7578063732435b2146102f2576100dd565b806320c6a30c116100bb57806320c6a30c146101a157806326134a1b146101e05780632ef10ba2146102095780634933e63114610246576100dd565b8063141961bc146100e257806319ac74bd14610127578063209b7d5f14610164575b600080fd5b3480156100ee57600080fd5b5061010960048036038101906101049190612715565b6103f2565b60405161011e9998979695949392919061283d565b60405180910390f35b34801561013357600080fd5b5061014e6004803603810190610149919061291d565b610605565b60405161015b919061295d565b60405180910390f35b34801561017057600080fd5b5061018b60048036038101906101869190612715565b610636565b6040516101989190612aa0565b60405180910390f35b3480156101ad57600080fd5b506101c860048036038101906101c39190612ac2565b610712565b6040516101d793929190612b20565b60405180910390f35b3480156101ec57600080fd5b5061020760048036038101906102029190612d54565b610779565b005b34801561021557600080fd5b50610230600480360381019061022b9190612715565b610a34565b60405161023d9190612f42565b60405180910390f35b34801561025257600080fd5b5061026d6004803603810190610268919061291d565b610b10565b60405161027a919061295d565b60405180910390f35b34801561028f57600080fd5b506102aa60048036038101906102a59190612715565b610b41565b6040516102be989796959493929190613013565b60405180910390f35b3480156102d357600080fd5b506102dc610e92565b6040516102e9919061295d565b60405180910390f35b3480156102fe57600080fd5b50610319600480360381019061031491906130a6565b610e98565b604051610326919061335b565b60405180910390f35b34801561033b57600080fd5b506103446112e3565b604051610351919061335b565b60405180910390f35b34801561036657600080fd5b50610381600480360381019061037c91906130a6565b61168f565b60405161038e919061335b565b60405180910390f35b6103b160048036038101906103ac9190612715565b611ada565b005b3480156103bf57600080fd5b506103da60048036038101906103d59190612ac2565b611d5c565b6040516103e993929190612b20565b60405180910390f35b600160205280600052604060002060009150905080600001549080600101805461041b906133ac565b80601f0160208091040260200160405190810160405280929190818152602001828054610447906133ac565b80156104945780601f1061046957610100808354040283529160200191610494565b820191906000526020600020905b81548152906001019060200180831161047757829003601f168201915b5050505050908060020180546104a9906133ac565b80601f01602080910402602001604051908101604052809291908181526020018280546104d5906133ac565b80156105225780601f106104f757610100808354040283529160200191610522565b820191906000526020600020905b81548152906001019060200180831161050557829003601f168201915b5050505050908060030154908060040154908060050160009054906101000a900473ffffffffffffffffffffffffffffffffffffffff16908060050160149054906101000a900460ff1690806007015490806008018054610582906133ac565b80601f01602080910402602001604051908101604052809291908181526020018280546105ae906133ac565b80156105fb5780601f106105d0576101008083540402835291602001916105fb565b820191906000526020600020905b8154815290600101906020018083116105de57829003601f168201915b5050505050905089565b6002602052816000526040600020818154811061062157600080fd5b90600052602060002001600091509150505481565b606060036000838152602001908152602001600020805480602002602001604051908101604052809291908181526020016000905b8282101561070757838290600052602060002090600302016040518060600160405290816000820160009054906101000a900473ffffffffffffffffffffffffffffffffffffffff1673ffffffffffffffffffffffffffffffffffffffff1673ffffffffffffffffffffffffffffffffffffffff168152602001600182015481526020016002820154815250508152602001906001019061066b565b505050509050919050565b6005602052816000526040600020818154811061072e57600080fd5b9060005260206000209060030201600091509150508060000160009054906101000a900473ffffffffffffffffffffffffffffffffffffffff16908060010154908060020154905083565b60008351116107bd576040517f08c379a00000000000000000000000000000000000000000000000000000000081526004016107b490613429565b60405180910390fd5b4282116107ff576040517f08c379a00000000000000000000000000000000000000000000000000000000081526004016107f690613495565b60405180910390fd5b600080815480929190610811906134e4565b91905055506040518061014001604052806000548152602001878152602001868152602001858152602001600081526020013373ffffffffffffffffffffffffffffffffffffffff1681526020016001151581526020018481526020018381526020018281525060016000805481526020019081526020016000206000820151816000015560208201518160010190816108ab91906136d8565b5060408201518160020190816108c191906136d8565b50606082015181600301556080820151816004015560a08201518160050160006101000a81548173ffffffffffffffffffffffffffffffffffffffff021916908373ffffffffffffffffffffffffffffffffffffffff16021790555060c08201518160050160146101000a81548160ff02191690831515021790555060e08201518160060190805190602001906109599291906125af565b50610100820151816007015561012082015181600801908161097b91906136d8565b50905050600260003373ffffffffffffffffffffffffffffffffffffffff1673ffffffffffffffffffffffffffffffffffffffff16815260200190815260200160002060005490806001815401808255809150506001900390600052602060002001600090919091909150557f7186549a7b50d83ee07166d1e0f7dd7f6526479ac0536a9e8e313e01c214737b600054878787338787604051610a2497969594939291906137aa565b60405180910390a1505050505050565b606060056000838152602001908152602001600020805480602002602001604051908101604052809291908181526020016000905b82821015610b0557838290600052602060002090600302016040518060600160405290816000820160009054906101000a900473ffffffffffffffffffffffffffffffffffffffff1673ffffffffffffffffffffffffffffffffffffffff1673ffffffffffffffffffffffffffffffffffffffff1681526020016001820154815260200160028201548152505081526020019060010190610a69565b505050509050919050565b60046020528160005260406000208181548110610b2c57600080fd5b90600052602060002001600091509150505481565b600060608060008060008060606000600160008b81526020019081526020016000206040518061014001604052908160008201548152602001600182018054610b89906133ac565b80601f0160208091040260200160405190810160405280929190818152602001828054610bb5906133ac565b8015610c025780601f10610bd757610100808354040283529160200191610c02565b820191906000526020600020905b815481529060010190602001808311610be557829003601f168201915b50505050508152602001600282018054610c1b906133ac565b80601f0160208091040260200160405190810160405280929190818152602001828054610c47906133ac565b8015610c945780601f10610c6957610100808354040283529160200191610c94565b820191906000526020600020905b815481529060010190602001808311610c7757829003601f168201915b5050505050815260200160038201548152602001600482015481526020016005820160009054906101000a900473ffffffffffffffffffffffffffffffffffffffff1673ffffffffffffffffffffffffffffffffffffffff1673ffffffffffffffffffffffffffffffffffffffff1681526020016005820160149054906101000a900460ff1615151515815260200160068201805480602002602001604051908101604052809291908181526020018280548015610da757602002820191906000526020600020905b8160009054906101000a900473ffffffffffffffffffffffffffffffffffffffff1673ffffffffffffffffffffffffffffffffffffffff1681526020019060010190808311610d5d575b5050505050815260200160078201548152602001600882018054610dca906133ac565b80601f0160208091040260200160405190810160405280929190818152602001828054610df6906133ac565b8015610e435780601f10610e1857610100808354040283529160200191610e43565b820191906000526020600020905b815481529060010190602001808311610e2657829003601f168201915b5050505050815250509050806000015181602001518260400151836060015184608001518560a001518660c001518760e001519850985098509850985098509850985050919395975091939597565b60005481565b60606000600460008473ffffffffffffffffffffffffffffffffffffffff1673ffffffffffffffffffffffffffffffffffffffff168152602001908152602001600020805480602002602001604051908101604052809291908181526020018280548015610f2557602002820191906000526020600020905b815481526020019060010190808311610f11575b505050505090506000815167ffffffffffffffff811115610f4957610f48612b61565b5b604051908082528060200260200182016040528015610f8257816020015b610f6f612639565b815260200190600190039081610f675790505b50905060005b82518110156112d85760016000848381518110610fa857610fa761382e565b5b602002602001015181526020019081526020016000206040518061014001604052908160008201548152602001600182018054610fe4906133ac565b80601f0160208091040260200160405190810160405280929190818152602001828054611010906133ac565b801561105d5780601f106110325761010080835404028352916020019161105d565b820191906000526020600020905b81548152906001019060200180831161104057829003601f168201915b50505050508152602001600282018054611076906133ac565b80601f01602080910402602001604051908101604052809291908181526020018280546110a2906133ac565b80156110ef5780601f106110c4576101008083540402835291602001916110ef565b820191906000526020600020905b8154815290600101906020018083116110d257829003601f168201915b5050505050815260200160038201548152602001600482015481526020016005820160009054906101000a900473ffffffffffffffffffffffffffffffffffffffff1673ffffffffffffffffffffffffffffffffffffffff1673ffffffffffffffffffffffffffffffffffffffff1681526020016005820160149054906101000a900460ff161515151581526020016006820180548060200260200160405190810160405280929190818152602001828054801561120257602002820191906000526020600020905b8160009054906101000a900473ffffffffffffffffffffffffffffffffffffffff1673ffffffffffffffffffffffffffffffffffffffff16815260200190600101908083116111b8575b5050505050815260200160078201548152602001600882018054611225906133ac565b80601f0160208091040260200160405190810160405280929190818152602001828054611251906133ac565b801561129e5780601f106112735761010080835404028352916020019161129e565b820191906000526020600020905b81548152906001019060200180831161128157829003601f168201915b5050505050815250508282815181106112ba576112b961382e565b5b602002602001018190525080806112d0906134e4565b915050610f88565b508092505050919050565b60606000805467ffffffffffffffff81111561130257611301612b61565b5b60405190808252806020026020018201604052801561133b57816020015b611328612639565b8152602001906001900390816113205790505b5090506000600190505b600054811161168757600160008281526020019081526020016000206040518061014001604052908160008201548152602001600182018054611387906133ac565b80601f01602080910402602001604051908101604052809291908181526020018280546113b3906133ac565b80156114005780601f106113d557610100808354040283529160200191611400565b820191906000526020600020905b8154815290600101906020018083116113e357829003601f168201915b50505050508152602001600282018054611419906133ac565b80601f0160208091040260200160405190810160405280929190818152602001828054611445906133ac565b80156114925780601f1061146757610100808354040283529160200191611492565b820191906000526020600020905b81548152906001019060200180831161147557829003601f168201915b5050505050815260200160038201548152602001600482015481526020016005820160009054906101000a900473ffffffffffffffffffffffffffffffffffffffff1673ffffffffffffffffffffffffffffffffffffffff1673ffffffffffffffffffffffffffffffffffffffff1681526020016005820160149054906101000a900460ff16151515158152602001600682018054806020026020016040519081016040528092919081815260200182805480156115a557602002820191906000526020600020905b8160009054906101000a900473ffffffffffffffffffffffffffffffffffffffff1673ffffffffffffffffffffffffffffffffffffffff168152602001906001019080831161155b575b50505050508152602001600782015481526020016008820180546115c8906133ac565b80601f01602080910402602001604051908101604052809291908181526020018280546115f4906133ac565b80156116415780601f1061161657610100808354040283529160200191611641565b820191906000526020600020905b81548152906001019060200180831161162457829003601f168201915b50505050508152505082600183611658919061385d565b815181106116695761166861382e565b5b6020026020010181905250808061167f906134e4565b915050611345565b508091505090565b60606000600260008473ffffffffffffffffffffffffffffffffffffffff1673ffffffffffffffffffffffffffffffffffffffff16815260200190815260200160002080548060200260200160405190810160405280929190818152602001828054801561171c57602002820191906000526020600020905b815481526020019060010190808311611708575b505050505090506000815167ffffffffffffffff8111156117405761173f612b61565b5b60405190808252806020026020018201604052801561177957816020015b611766612639565b81526020019060019003908161175e5790505b50905060005b8251811015611acf576001600084838151811061179f5761179e61382e565b5b6020026020010151815260200190815260200160002060405180610140016040529081600082015481526020016001820180546117db906133ac565b80601f0160208091040260200160405190810160405280929190818152602001828054611807906133ac565b80156118545780601f1061182957610100808354040283529160200191611854565b820191906000526020600020905b81548152906001019060200180831161183757829003601f168201915b5050505050815260200160028201805461186d906133ac565b80601f0160208091040260200160405190810160405280929190818152602001828054611899906133ac565b80156118e65780601f106118bb576101008083540402835291602001916118e6565b820191906000526020600020905b8154815290600101906020018083116118c957829003601f168201915b5050505050815260200160038201548152602001600482015481526020016005820160009054906101000a900473ffffffffffffffffffffffffffffffffffffffff1673ffffffffffffffffffffffffffffffffffffffff1673ffffffffffffffffffffffffffffffffffffffff1681526020016005820160149054906101000a900460ff16151515158152602001600682018054806020026020016040519081016040528092919081815260200182805480156119f957602002820191906000526020600020905b8160009054906101000a900473ffffffffffffffffffffffffffffffffffffffff1673ffffffffffffffffffffffffffffffffffffffff16815260200190600101908083116119af575b5050505050815260200160078201548152602001600882018054611a1c906133ac565b80601f0160208091040260200160405190810160405280929190818152602001828054611a48906133ac565b8015611a955780601f10611a6a57610100808354040283529160200191611a95565b820191906000526020600020905b815481529060010190602001808311611a7857829003601f168201915b505050505081525050828281518110611ab157611ab061382e565b5b60200260200101819052508080611ac7906134e4565b91505061177f565b508092505050919050565b600081118015611aec57506000548111155b611b2b576040517f08c379a0000000000000000000000000000000000000000000000000000000008152600401611b22906138dd565b60405180910390fd5b60006001600083815260200190815260200160002090508060050160149054906101000a900460ff16611b93576040517f08c379a0000000000000000000000000000000000000000000000000000000008152600401611b8a90613949565b60405180910390fd5b34816004016000828254611ba79190613969565b925050819055506000600143611bbd919061385d565b4090506003600084815260200190815260200160002060405180606001604052803373ffffffffffffffffffffffffffffffffffffffff16815260200134815260200183815250908060018154018082558091505060019003906000526020600020906003020160009091909190915060008201518160000160006101000a81548173ffffffffffffffffffffffffffffffffffffffff021916908373ffffffffffffffffffffffffffffffffffffffff16021790555060208201518160010155604082015181600201555050600460003373ffffffffffffffffffffffffffffffffffffffff1673ffffffffffffffffffffffffffffffffffffffff1681526020019081526020016000208390806001815401808255809150506001900390600052602060002001600090919091909150557fcbd5fb2168dc3aca5ad0522800335551603a51e408a510669a9a89bab6b3f3f783333484604051611d25949392919061399d565b60405180910390a181600301548260040154101580611d48575081600701544210155b15611d5757611d5683611dc3565b5b505050565b60036020528160005260406000208181548110611d7857600080fd5b9060005260206000209060030201600091509150508060000160009054906101000a900473ffffffffffffffffffffffffffffffffffffffff16908060010154908060020154905083565b60006001600083815260200190815260200160002090508060050160149054906101000a900460ff16611e2b576040517f08c379a0000000000000000000000000000000000000000000000000000000008152600401611e2290613949565b60405180910390fd5b80600301548160040154101580611e46575080600701544210155b611e85576040517f08c379a0000000000000000000000000000000000000000000000000000000008152600401611e7c90613a54565b60405180910390fd5b60008160050160146101000a81548160ff02191690831515021790555060008160040154905060008260060180549050905060008183611ec59190613aa3565b905060008284611ed59190613ad4565b9050611f166040518060400160405280601181526020017f436f6e74726163742062616c616e63653a00000000000000000000000000000081525047612431565b611f556040518060400160405280600d81526020017f546f74616c207261697365643a0000000000000000000000000000000000000081525085612431565b611f946040518060400160405280601081526020017f526563697069656e7420636f756e743a0000000000000000000000000000000081525084612431565b60008367ffffffffffffffff811115611fb057611faf612b61565b5b604051908082528060200260200182016040528015611fde5781602001602082028036833780820191505090505b50905060008467ffffffffffffffff811115611ffd57611ffc612b61565b5b60405190808252806020026020018201604052801561202b5781602001602082028036833780820191505090505b50905060005b858110156123e6578483828151811061204d5761204c61382e565b5b602002602001018181525050600084111561209d578281815181106120755761207461382e565b5b60200260200101805180919061208a906134e4565b81525050838061209990613b05565b9450505b60006001436120ac919061385d565b409050600560008b815260200190815260200160002060405180606001604052808b60060185815481106120e3576120e261382e565b5b9060005260206000200160009054906101000a900473ffffffffffffffffffffffffffffffffffffffff1673ffffffffffffffffffffffffffffffffffffffff16815260200186858151811061213c5761213b61382e565b5b6020026020010151815260200183815250908060018154018082558091505060019003906000526020600020906003020160009091909190915060008201518160000160006101000a81548173ffffffffffffffffffffffffffffffffffffffff021916908373ffffffffffffffffffffffffffffffffffffffff16021790555060208201518160010155604082015181600201555050808383815181106121e7576121e661382e565b5b6020026020010181815250506122726040518060400160405280601581526020017f53656e64696e6720746f20726563697069656e743a00000000000000000000008152508a60060184815481106122425761224161382e565b5b9060005260206000200160009054906101000a900473ffffffffffffffffffffffffffffffffffffffff166124cd565b6122cb6040518060400160405280600781526020017f416d6f756e743a000000000000000000000000000000000000000000000000008152508584815181106122be576122bd61382e565b5b6020026020010151612431565b60008960060183815481106122e3576122e261382e565b5b9060005260206000200160009054906101000a900473ffffffffffffffffffffffffffffffffffffffff1673ffffffffffffffffffffffffffffffffffffffff168584815181106123375761233661382e565b5b602002602001015160405161234b90613b5f565b60006040518083038185875af1925050503d8060008114612388576040519150601f19603f3d011682016040523d82523d6000602084013e61238d565b606091505b50509050806123d1576040517f08c379a00000000000000000000000000000000000000000000000000000000081526004016123c890613be6565b60405180910390fd5b505080806123de906134e4565b915050612031565b507f91ef7cac59de391afd286cc7ad6ddc2d02543da0dd1071851766c577dc2922108888600601848460405161241f9493929190613e50565b60405180910390a15050505050505050565b6124c98282604051602401612447929190613eaa565b6040516020818303038152906040527fb60e72cc000000000000000000000000000000000000000000000000000000007bffffffffffffffffffffffffffffffffffffffffffffffffffffffff19166020820180517bffffffffffffffffffffffffffffffffffffffffffffffffffffffff8381831617835250505050612569565b5050565b61256582826040516024016124e3929190613eda565b6040516020818303038152906040527f319af333000000000000000000000000000000000000000000000000000000007bffffffffffffffffffffffffffffffffffffffffffffffffffffffff19166020820180517bffffffffffffffffffffffffffffffffffffffffffffffffffffffff8381831617835250505050612569565b5050565b612580816125786125836125a4565b63ffffffff16565b50565b60006a636f6e736f6c652e6c6f679050600080835160208501845afa505050565b6126a4819050919050565b828054828255906000526020600020908101928215612628579160200282015b828111156126275782518260006101000a81548173ffffffffffffffffffffffffffffffffffffffff021916908373ffffffffffffffffffffffffffffffffffffffff160217905550916020019190600101906125cf565b5b50905061263591906126ae565b5090565b6040518061014001604052806000815260200160608152602001606081526020016000815260200160008152602001600073ffffffffffffffffffffffffffffffffffffffff1681526020016000151581526020016060815260200160008152602001606081525090565b6126ac613f0a565b565b5b808211156126c75760008160009055506001016126af565b5090565b6000604051905090565b600080fd5b600080fd5b6000819050919050565b6126f2816126df565b81146126fd57600080fd5b50565b60008135905061270f816126e9565b92915050565b60006020828403121561272b5761272a6126d5565b5b600061273984828501612700565b91505092915050565b61274b816126df565b82525050565b600081519050919050565b600082825260208201905092915050565b60005b8381101561278b578082015181840152602081019050612770565b60008484015250505050565b6000601f19601f8301169050919050565b60006127b382612751565b6127bd818561275c565b93506127cd81856020860161276d565b6127d681612797565b840191505092915050565b600073ffffffffffffffffffffffffffffffffffffffff82169050919050565b600061280c826127e1565b9050919050565b61281c81612801565b82525050565b60008115159050919050565b61283781612822565b82525050565b600061012082019050612853600083018c612742565b8181036020830152612865818b6127a8565b90508181036040830152612879818a6127a8565b90506128886060830189612742565b6128956080830188612742565b6128a260a0830187612813565b6128af60c083018661282e565b6128bc60e0830185612742565b8181036101008301526128cf81846127a8565b90509a9950505050505050505050565b60006128ea826127e1565b9050919050565b6128fa816128df565b811461290557600080fd5b50565b600081359050612917816128f1565b92915050565b60008060408385031215612934576129336126d5565b5b600061294285828601612908565b925050602061295385828601612700565b9150509250929050565b60006020820190506129726000830184612742565b92915050565b600081519050919050565b600082825260208201905092915050565b6000819050602082019050919050565b6129ad816128df565b82525050565b6129bc816126df565b82525050565b6000819050919050565b6129d5816129c2565b82525050565b6060820160008201516129f160008501826129a4565b506020820151612a0460208501826129b3565b506040820151612a1760408501826129cc565b50505050565b6000612a2983836129db565b60608301905092915050565b6000602082019050919050565b6000612a4d82612978565b612a578185612983565b9350612a6283612994565b8060005b83811015612a93578151612a7a8882612a1d565b9750612a8583612a35565b925050600181019050612a66565b5085935050505092915050565b60006020820190508181036000830152612aba8184612a42565b905092915050565b60008060408385031215612ad957612ad86126d5565b5b6000612ae785828601612700565b9250506020612af885828601612700565b9150509250929050565b612b0b816128df565b82525050565b612b1a816129c2565b82525050565b6000606082019050612b356000830186612b02565b612b426020830185612742565b612b4f6040830184612b11565b949350505050565b600080fd5b600080fd5b7f4e487b7100000000000000000000000000000000000000000000000000000000600052604160045260246000fd5b612b9982612797565b810181811067ffffffffffffffff82111715612bb857612bb7612b61565b5b80604052505050565b6000612bcb6126cb565b9050612bd78282612b90565b919050565b600067ffffffffffffffff821115612bf757612bf6612b61565b5b612c0082612797565b9050602081019050919050565b82818337600083830152505050565b6000612c2f612c2a84612bdc565b612bc1565b905082815260208101848484011115612c4b57612c4a612b5c565b5b612c56848285612c0d565b509392505050565b600082601f830112612c7357612c72612b57565b5b8135612c83848260208601612c1c565b91505092915050565b600067ffffffffffffffff821115612ca757612ca6612b61565b5b602082029050602081019050919050565b600080fd5b6000612cd0612ccb84612c8c565b612bc1565b90508083825260208201905060208402830185811115612cf357612cf2612cb8565b5b835b81811015612d1c5780612d088882612908565b845260208401935050602081019050612cf5565b5050509392505050565b600082601f830112612d3b57612d3a612b57565b5b8135612d4b848260208601612cbd565b91505092915050565b60008060008060008060c08789031215612d7157612d706126d5565b5b600087013567ffffffffffffffff811115612d8f57612d8e6126da565b5b612d9b89828a01612c5e565b965050602087013567ffffffffffffffff811115612dbc57612dbb6126da565b5b612dc889828a01612c5e565b9550506040612dd989828a01612700565b945050606087013567ffffffffffffffff811115612dfa57612df96126da565b5b612e0689828a01612d26565b9350506080612e1789828a01612700565b92505060a087013567ffffffffffffffff811115612e3857612e376126da565b5b612e4489828a01612c5e565b9150509295509295509295565b600081519050919050565b600082825260208201905092915050565b6000819050602082019050919050565b606082016000820151612e9360008501826129a4565b506020820151612ea660208501826129b3565b506040820151612eb960408501826129cc565b50505050565b6000612ecb8383612e7d565b60608301905092915050565b6000602082019050919050565b6000612eef82612e51565b612ef98185612e5c565b9350612f0483612e6d565b8060005b83811015612f35578151612f1c8882612ebf565b9750612f2783612ed7565b925050600181019050612f08565b5085935050505092915050565b60006020820190508181036000830152612f5c8184612ee4565b905092915050565b600081519050919050565b600082825260208201905092915050565b6000819050602082019050919050565b6000612f9c83836129a4565b60208301905092915050565b6000602082019050919050565b6000612fc082612f64565b612fca8185612f6f565b9350612fd583612f80565b8060005b83811015613006578151612fed8882612f90565b9750612ff883612fa8565b925050600181019050612fd9565b5085935050505092915050565b600061010082019050613029600083018b612742565b818103602083015261303b818a6127a8565b9050818103604083015261304f81896127a8565b905061305e6060830188612742565b61306b6080830187612742565b61307860a0830186612b02565b61308560c083018561282e565b81810360e08301526130978184612fb5565b90509998505050505050505050565b6000602082840312156130bc576130bb6126d5565b5b60006130ca84828501612908565b91505092915050565b600081519050919050565b600082825260208201905092915050565b6000819050602082019050919050565b600082825260208201905092915050565b600061311b82612751565b61312581856130ff565b935061313581856020860161276d565b61313e81612797565b840191505092915050565b61315281612801565b82525050565b61316181612822565b82525050565b600082825260208201905092915050565b600061318382612f64565b61318d8185613167565b935061319883612f80565b8060005b838110156131c95781516131b08882612f90565b97506131bb83612fa8565b92505060018101905061319c565b5085935050505092915050565b6000610140830160008301516131ef60008601826129b3565b50602083015184820360208601526132078282613110565b915050604083015184820360408601526132218282613110565b915050606083015161323660608601826129b3565b50608083015161324960808601826129b3565b5060a083015161325c60a0860182613149565b5060c083015161326f60c0860182613158565b5060e083015184820360e08601526132878282613178565b91505061010083015161329e6101008601826129b3565b506101208301518482036101208601526132b88282613110565b9150508091505092915050565b60006132d183836131d6565b905092915050565b6000602082019050919050565b60006132f1826130d3565b6132fb81856130de565b93508360208202850161330d856130ef565b8060005b85811015613349578484038952815161332a85826132c5565b9450613335836132d9565b925060208a01995050600181019050613311565b50829750879550505050505092915050565b6000602082019050818103600083015261337581846132e6565b905092915050565b7f4e487b7100000000000000000000000000000000000000000000000000000000600052602260045260246000fd5b600060028204905060018216806133c457607f821691505b6020821081036133d7576133d661337d565b5b50919050565b7f4174206c65617374206f6e6520726563697069656e7420726571756972656400600082015250565b6000613413601f8361275c565b915061341e826133dd565b602082019050919050565b6000602082019050818103600083015261344281613406565b9050919050565b7f446561646c696e65206d75737420626520696e20746865206675747572650000600082015250565b600061347f601e8361275c565b915061348a82613449565b602082019050919050565b600060208201905081810360008301526134ae81613472565b9050919050565b7f4e487b7100000000000000000000000000000000000000000000000000000000600052601160045260246000fd5b60006134ef826126df565b91507fffffffffffffffffffffffffffffffffffffffffffffffffffffffffffffffff8203613521576135206134b5565b5b600182019050919050565b60008190508160005260206000209050919050565b60006020601f8301049050919050565b600082821b905092915050565b60006008830261358e7fffffffffffffffffffffffffffffffffffffffffffffffffffffffffffffffff82613551565b6135988683613551565b95508019841693508086168417925050509392505050565b6000819050919050565b60006135d56135d06135cb846126df565b6135b0565b6126df565b9050919050565b6000819050919050565b6135ef836135ba565b6136036135fb826135dc565b84845461355e565b825550505050565b600090565b61361861360b565b6136238184846135e6565b505050565b5b818110156136475761363c600082613610565b600181019050613629565b5050565b601f82111561368c5761365d8161352c565b61366684613541565b81016020851015613675578190505b61368961368185613541565b830182613628565b50505b505050565b600082821c905092915050565b60006136af60001984600802613691565b1980831691505092915050565b60006136c8838361369e565b9150826002028217905092915050565b6136e182612751565b67ffffffffffffffff8111156136fa576136f9612b61565b5b61370482546133ac565b61370f82828561364b565b600060209050601f8311600181146137425760008415613730578287015190505b61373a85826136bc565b8655506137a2565b601f1984166137508661352c565b60005b8281101561377857848901518255600182019150602085019450602081019050613753565b868310156137955784890151613791601f89168261369e565b8355505b6001600288020188555050505b505050505050565b600060e0820190506137bf600083018a612742565b81810360208301526137d181896127a8565b905081810360408301526137e581886127a8565b90506137f46060830187612742565b6138016080830186612b02565b61380e60a0830185612742565b81810360c083015261382081846127a8565b905098975050505050505050565b7f4e487b7100000000000000000000000000000000000000000000000000000000600052603260045260246000fd5b6000613868826126df565b9150613873836126df565b925082820390508181111561388b5761388a6134b5565b5b92915050565b7f496e76616c69642063616d706169676e20494400000000000000000000000000600082015250565b60006138c760138361275c565b91506138d282613891565b602082019050919050565b600060208201905081810360008301526138f6816138ba565b9050919050565b7f43616d706169676e206973206e6f742061637469766500000000000000000000600082015250565b600061393360168361275c565b915061393e826138fd565b602082019050919050565b6000602082019050818103600083015261396281613926565b9050919050565b6000613974826126df565b915061397f836126df565b9250828201905080821115613997576139966134b5565b5b92915050565b60006080820190506139b26000830187612742565b6139bf6020830186612b02565b6139cc6040830185612742565b6139d96060830184612b11565b95945050505050565b7f476f616c206e6f742072656163686564206f7220646561646c696e65206e6f7460008201527f2072656163686564000000000000000000000000000000000000000000000000602082015250565b6000613a3e60288361275c565b9150613a49826139e2565b604082019050919050565b60006020820190508181036000830152613a6d81613a31565b9050919050565b7f4e487b7100000000000000000000000000000000000000000000000000000000600052601260045260246000fd5b6000613aae826126df565b9150613ab9836126df565b925082613ac957613ac8613a74565b5b828204905092915050565b6000613adf826126df565b9150613aea836126df565b925082613afa57613af9613a74565b5b828206905092915050565b6000613b10826126df565b915060008203613b2357613b226134b5565b5b600182039050919050565b600081905092915050565b50565b6000613b49600083613b2e565b9150613b5482613b39565b600082019050919050565b6000613b6a82613b3c565b9150819050919050565b7f4661696c656420746f2073656e6420457468657220746f20726563697069656e60008201527f7400000000000000000000000000000000000000000000000000000000000000602082015250565b6000613bd060218361275c565b9150613bdb82613b74565b604082019050919050565b60006020820190508181036000830152613bff81613bc3565b9050919050565b600081549050919050565b60008190508160005260206000209050919050565b60008160001c9050919050565b600073ffffffffffffffffffffffffffffffffffffffff82169050919050565b6000613c66613c6183613c26565b613c33565b9050919050565b6000613c798254613c53565b9050919050565b6000600182019050919050565b6000613c9882613c06565b613ca28185612f6f565b9350613cad83613c11565b8060005b83811015613ce557613cc282613c6d565b613ccc8882612f90565b9750613cd783613c80565b925050600181019050613cb1565b5085935050505092915050565b600081519050919050565b600082825260208201905092915050565b6000819050602082019050919050565b6000613d2a83836129b3565b60208301905092915050565b6000602082019050919050565b6000613d4e82613cf2565b613d588185613cfd565b9350613d6383613d0e565b8060005b83811015613d94578151613d7b8882613d1e565b9750613d8683613d36565b925050600181019050613d67565b5085935050505092915050565b600081519050919050565b600082825260208201905092915050565b6000819050602082019050919050565b6000613dd983836129cc565b60208301905092915050565b6000602082019050919050565b6000613dfd82613da1565b613e078185613dac565b9350613e1283613dbd565b8060005b83811015613e43578151613e2a8882613dcd565b9750613e3583613de5565b925050600181019050613e16565b5085935050505092915050565b6000608082019050613e656000830187612742565b8181036020830152613e778186613c8d565b90508181036040830152613e8b8185613d43565b90508181036060830152613e9f8184613df2565b905095945050505050565b60006040820190508181036000830152613ec481856127a8565b9050613ed36020830184612742565b9392505050565b60006040820190508181036000830152613ef481856127a8565b9050613f036020830184612b02565b9392505050565b7f4e487b7100000000000000000000000000000000000000000000000000000000600052605160045260246000fdfea2646970667358221220541b2db7acaf25e9222564f1ddae12f13bef7eb396ae3ffeaedffbeb21c0d78664736f6c63430008130033",
  "linkReferences": {},
  "deployedLinkReferences": {}
}