{
  "_format": "hh-sol-artifact-1",
  "contractName": "DonationPlatform",
  "sourceName": "contracts/Lock.sol",
  "abi": [
    {
      "anonymous": false,
      "inputs": [
        {
          "indexed": false,
          "internalType": "uint256",
          "name": "id",
          "type": "uint256"
        },
        {
          "indexed": false,
          "internalType": "string",
          "name": "title",
          "type": "string"
        },
        {
          "indexed": false,
          "internalType": "string",
          "name": "description",
          "type": "string"
        },
        {
          "indexed": false,
          "internalType": "uint256",
          "name": "goal",
          "type": "uint256"
        },
        {
          "indexed": false,
          "internalType": "address",
          "name": "owner",
          "type": "address"
        },
        {
          "indexed": false,
          "internalType": "uint256",
          "name": "deadline",
          "type": "uint256"
        },
        {
          "indexed": false,
          "internalType": "string",
          "name": "image",
          "type": "string"
        }
      ],
      "name": "CampaignCreated",
      "type": "event"
    },
    {
      "anonymous": false,
      "inputs": [
        {
          "indexed": false,
          "internalType": "uint256",
          "name": "campaignId",
          "type": "uint256"
        },
        {
          "indexed": false,
          "internalType": "address",
          "name": "donor",
          "type": "address"
        },
        {
          "indexed": false,
          "internalType": "uint256",
          "name": "amount",
          "type": "uint256"
        }
      ],
      "name": "DonationMade",
      "type": "event"
    },
    {
      "anonymous": false,
      "inputs": [
        {
          "indexed": false,
          "internalType": "uint256",
          "name": "campaignId",
          "type": "uint256"
        },
        {
          "indexed": false,
          "internalType": "address[]",
          "name": "recipients",
          "type": "address[]"
        },
        {
          "indexed": false,
          "internalType": "uint256[]",
          "name": "amounts",
          "type": "uint256[]"
        }
      ],
      "name": "FundsDistributed",
      "type": "event"
    },
    {
      "inputs": [],
      "name": "campaignCount",
      "outputs": [
        {
          "internalType": "uint256",
          "name": "",
          "type": "uint256"
        }
      ],
      "stateMutability": "view",
      "type": "function"
    },
    {
      "inputs": [
        {
          "internalType": "uint256",
          "name": "",
          "type": "uint256"
        },
        {
          "internalType": "uint256",
          "name": "",
          "type": "uint256"
        }
      ],
      "name": "campaignDonors",
      "outputs": [
        {
          "internalType": "address",
          "name": "donorAddress",
          "type": "address"
        },
        {
          "internalType": "uint256",
          "name": "amount",
          "type": "uint256"
        }
      ],
      "stateMutability": "view",
      "type": "function"
    },
    {
      "inputs": [
        {
          "internalType": "uint256",
          "name": "",
          "type": "uint256"
        },
        {
          "internalType": "uint256",
          "name": "",
          "type": "uint256"
        }
      ],
      "name": "campaignRecipients",
      "outputs": [
        {
          "internalType": "address",
          "name": "recipientAddress",
          "type": "address"
        },
        {
          "internalType": "uint256",
          "name": "amount",
          "type": "uint256"
        }
      ],
      "stateMutability": "view",
      "type": "function"
    },
    {
      "inputs": [
        {
          "internalType": "uint256",
          "name": "",
          "type": "uint256"
        }
      ],
      "name": "campaigns",
      "outputs": [
        {
          "internalType": "uint256",
          "name": "id",
          "type": "uint256"
        },
        {
          "internalType": "string",
          "name": "title",
          "type": "string"
        },
        {
          "internalType": "string",
          "name": "description",
          "type": "string"
        },
        {
          "internalType": "uint256",
          "name": "goal",
          "type": "uint256"
        },
        {
          "internalType": "uint256",
          "name": "raised",
          "type": "uint256"
        },
        {
          "internalType": "address payable",
          "name": "owner",
          "type": "address"
        },
        {
          "internalType": "bool",
          "name": "isActive",
          "type": "bool"
        },
        {
          "internalType": "uint256",
          "name": "deadline",
          "type": "uint256"
        },
        {
          "internalType": "string",
          "name": "image",
          "type": "string"
        }
      ],
      "stateMutability": "view",
      "type": "function"
    },
    {
      "inputs": [
        {
          "internalType": "string",
          "name": "_title",
          "type": "string"
        },
        {
          "internalType": "string",
          "name": "_description",
          "type": "string"
        },
        {
          "internalType": "uint256",
          "name": "_goal",
          "type": "uint256"
        },
        {
          "internalType": "address[]",
          "name": "_recipients",
          "type": "address[]"
        },
        {
          "internalType": "uint256",
          "name": "_deadline",
          "type": "uint256"
        },
        {
          "internalType": "string",
          "name": "_image",
          "type": "string"
        }
      ],
      "name": "createCampaign",
      "outputs": [],
      "stateMutability": "nonpayable",
      "type": "function"
    },
    {
      "inputs": [
        {
          "internalType": "uint256",
          "name": "_campaignId",
          "type": "uint256"
        }
      ],
      "name": "donate",
      "outputs": [],
      "stateMutability": "payable",
      "type": "function"
    },
    {
      "inputs": [],
      "name": "getAllCampaigns",
      "outputs": [
        {
          "components": [
            {
              "internalType": "uint256",
              "name": "id",
              "type": "uint256"
            },
            {
              "internalType": "string",
              "name": "title",
              "type": "string"
            },
            {
              "internalType": "string",
              "name": "description",
              "type": "string"
            },
            {
              "internalType": "uint256",
              "name": "goal",
              "type": "uint256"
            },
            {
              "internalType": "uint256",
              "name": "raised",
              "type": "uint256"
            },
            {
              "internalType": "address payable",
              "name": "owner",
              "type": "address"
            },
            {
              "internalType": "bool",
              "name": "isActive",
              "type": "bool"
            },
            {
              "internalType": "address[]",
              "name": "recipients",
              "type": "address[]"
            },
            {
              "internalType": "uint256",
              "name": "deadline",
              "type": "uint256"
            },
            {
              "internalType": "string",
              "name": "image",
              "type": "string"
            }
          ],
          "internalType": "struct DonationPlatform.Campaign[]",
          "name": "",
          "type": "tuple[]"
        }
      ],
      "stateMutability": "view",
      "type": "function"
    },
    {
      "inputs": [
        {
          "internalType": "uint256",
          "name": "_campaignId",
          "type": "uint256"
        }
      ],
      "name": "getCampaign",
      "outputs": [
        {
          "internalType": "uint256",
          "name": "id",
          "type": "uint256"
        },
        {
          "internalType": "string",
          "name": "title",
          "type": "string"
        },
        {
          "internalType": "string",
          "name": "description",
          "type": "string"
        },
        {
          "internalType": "uint256",
          "name": "goal",
          "type": "uint256"
        },
        {
          "internalType": "uint256",
          "name": "raised",
          "type": "uint256"
        },
        {
          "internalType": "address",
          "name": "owner",
          "type": "address"
        },
        {
          "internalType": "bool",
          "name": "isActive",
          "type": "bool"
        },
        {
          "internalType": "address[]",
          "name": "recipients",
          "type": "address[]"
        }
      ],
      "stateMutability": "view",
      "type": "function"
    },
    {
      "inputs": [
        {
          "internalType": "uint256",
          "name": "_campaignId",
          "type": "uint256"
        }
      ],
      "name": "getCampaignDonors",
      "outputs": [
        {
          "components": [
            {
              "internalType": "address",
              "name": "donorAddress",
              "type": "address"
            },
            {
              "internalType": "uint256",
              "name": "amount",
              "type": "uint256"
            }
          ],
          "internalType": "struct DonationPlatform.Donor[]",
          "name": "",
          "type": "tuple[]"
        }
      ],
      "stateMutability": "view",
      "type": "function"
    },
    {
      "inputs": [
        {
          "internalType": "uint256",
          "name": "_campaignId",
          "type": "uint256"
        }
      ],
      "name": "getCampaignRecipients",
      "outputs": [
        {
          "components": [
            {
              "internalType": "address",
              "name": "recipientAddress",
              "type": "address"
            },
            {
              "internalType": "uint256",
              "name": "amount",
              "type": "uint256"
            }
          ],
          "internalType": "struct DonationPlatform.Recipient[]",
          "name": "",
          "type": "tuple[]"
        }
      ],
      "stateMutability": "view",
      "type": "function"
    },
    {
      "inputs": [
        {
          "internalType": "address",
          "name": "_user",
          "type": "address"
        }
      ],
      "name": "getUserCampaigns",
      "outputs": [
        {
          "components": [
            {
              "internalType": "uint256",
              "name": "id",
              "type": "uint256"
            },
            {
              "internalType": "string",
              "name": "title",
              "type": "string"
            },
            {
              "internalType": "string",
              "name": "description",
              "type": "string"
            },
            {
              "internalType": "uint256",
              "name": "goal",
              "type": "uint256"
            },
            {
              "internalType": "uint256",
              "name": "raised",
              "type": "uint256"
            },
            {
              "internalType": "address payable",
              "name": "owner",
              "type": "address"
            },
            {
              "internalType": "bool",
              "name": "isActive",
              "type": "bool"
            },
            {
              "internalType": "address[]",
              "name": "recipients",
              "type": "address[]"
            },
            {
              "internalType": "uint256",
              "name": "deadline",
              "type": "uint256"
            },
            {
              "internalType": "string",
              "name": "image",
              "type": "string"
            }
          ],
          "internalType": "struct DonationPlatform.Campaign[]",
          "name": "",
          "type": "tuple[]"
        }
      ],
      "stateMutability": "view",
      "type": "function"
    },
    {
      "inputs": [
        {
          "internalType": "address",
          "name": "_user",
          "type": "address"
        }
      ],
      "name": "getUserDonations",
      "outputs": [
        {
          "components": [
            {
              "internalType": "uint256",
              "name": "id",
              "type": "uint256"
            },
            {
              "internalType": "string",
              "name": "title",
              "type": "string"
            },
            {
              "internalType": "string",
              "name": "description",
              "type": "string"
            },
            {
              "internalType": "uint256",
              "name": "goal",
              "type": "uint256"
            },
            {
              "internalType": "uint256",
              "name": "raised",
              "type": "uint256"
            },
            {
              "internalType": "address payable",
              "name": "owner",
              "type": "address"
            },
            {
              "internalType": "bool",
              "name": "isActive",
              "type": "bool"
            },
            {
              "internalType": "address[]",
              "name": "recipients",
              "type": "address[]"
            },
            {
              "internalType": "uint256",
              "name": "deadline",
              "type": "uint256"
            },
            {
              "internalType": "string",
              "name": "image",
              "type": "string"
            }
          ],
          "internalType": "struct DonationPlatform.Campaign[]",
          "name": "",
          "type": "tuple[]"
        }
      ],
      "stateMutability": "view",
      "type": "function"
    },
    {
      "inputs": [
        {
          "internalType": "address",
          "name": "",
          "type": "address"
        },
        {
          "internalType": "uint256",
          "name": "",
          "type": "uint256"
        }
      ],
      "name": "userCampaigns",
      "outputs": [
        {
          "internalType": "uint256",
          "name": "",
          "type": "uint256"
        }
      ],
      "stateMutability": "view",
      "type": "function"
    },
    {
      "inputs": [
        {
          "internalType": "address",
          "name": "",
          "type": "address"
        },
        {
          "internalType": "uint256",
          "name": "",
          "type": "uint256"
        }
      ],
      "name": "userDonations",
      "outputs": [
        {
          "internalType": "uint256",
          "name": "",
          "type": "uint256"
        }
      ],
      "stateMutability": "view",
      "type": "function"
    }
  ],
  "bytecode": "0x608060405234801561001057600080fd5b50613d67806100206000396000f3fe6080604052600436106100dd5760003560e01c80635598f8cc1161007f57806386cdf6041161005957806386cdf6041461032e578063a1e5084c14610359578063f14faf6f14610396578063f25e1e93146103b2576100dd565b80635598f8cc146102825780637274e30d146102c6578063732435b2146102f1576100dd565b806320c6a30c116100bb57806320c6a30c146101a157806326134a1b146101df5780632ef10ba2146102085780634933e63114610245576100dd565b8063141961bc146100e257806319ac74bd14610127578063209b7d5f14610164575b600080fd5b3480156100ee57600080fd5b506101096004803603810190610104919061263b565b6103f0565b60405161011e99989796959493929190612763565b60405180910390f35b34801561013357600080fd5b5061014e60048036038101906101499190612843565b610603565b60405161015b9190612883565b60405180910390f35b34801561017057600080fd5b5061018b6004803603810190610186919061263b565b610634565b604051610198919061299a565b60405180910390f35b3480156101ad57600080fd5b506101c860048036038101906101c391906129bc565b610706565b6040516101d6929190612a0b565b60405180910390f35b3480156101eb57600080fd5b5061020660048036038101906102019190612c31565b610767565b005b34801561021457600080fd5b5061022f600480360381019061022a919061263b565b610a22565b60405161023c9190612e0c565b60405180910390f35b34801561025157600080fd5b5061026c60048036038101906102679190612843565b610af4565b6040516102799190612883565b60405180910390f35b34801561028e57600080fd5b506102a960048036038101906102a4919061263b565b610b25565b6040516102bd989796959493929190612edd565b60405180910390f35b3480156102d257600080fd5b506102db610e76565b6040516102e89190612883565b60405180910390f35b3480156102fd57600080fd5b5061031860048036038101906103139190612f70565b610e7c565b6040516103259190613225565b60405180910390f35b34801561033a57600080fd5b506103436112c7565b6040516103509190613225565b60405180910390f35b34801561036557600080fd5b50610380600480360381019061037b9190612f70565b611673565b60405161038d9190613225565b60405180910390f35b6103b060048036038101906103ab919061263b565b611abe565b005b3480156103be57600080fd5b506103d960048036038101906103d491906129bc565b611d1b565b6040516103e7929190612a0b565b60405180910390f35b600160205280600052604060002060009150905080600001549080600101805461041990613276565b80601f016020809104026020016040519081016040528092919081815260200182805461044590613276565b80156104925780601f1061046757610100808354040283529160200191610492565b820191906000526020600020905b81548152906001019060200180831161047557829003601f168201915b5050505050908060020180546104a790613276565b80601f01602080910402602001604051908101604052809291908181526020018280546104d390613276565b80156105205780601f106104f557610100808354040283529160200191610520565b820191906000526020600020905b81548152906001019060200180831161050357829003601f168201915b5050505050908060030154908060040154908060050160009054906101000a900473ffffffffffffffffffffffffffffffffffffffff16908060050160149054906101000a900460ff169080600701549080600801805461058090613276565b80601f01602080910402602001604051908101604052809291908181526020018280546105ac90613276565b80156105f95780601f106105ce576101008083540402835291602001916105f9565b820191906000526020600020905b8154815290600101906020018083116105dc57829003601f168201915b5050505050905089565b6002602052816000526040600020818154811061061f57600080fd5b90600052602060002001600091509150505481565b606060036000838152602001908152602001600020805480602002602001604051908101604052809291908181526020016000905b828210156106fb57838290600052602060002090600202016040518060400160405290816000820160009054906101000a900473ffffffffffffffffffffffffffffffffffffffff1673ffffffffffffffffffffffffffffffffffffffff1673ffffffffffffffffffffffffffffffffffffffff16815260200160018201548152505081526020019060010190610669565b505050509050919050565b6005602052816000526040600020818154811061072257600080fd5b9060005260206000209060020201600091509150508060000160009054906101000a900473ffffffffffffffffffffffffffffffffffffffff16908060010154905082565b60008351116107ab576040517f08c379a00000000000000000000000000000000000000000000000000000000081526004016107a2906132f3565b60405180910390fd5b4282116107ed576040517f08c379a00000000000000000000000000000000000000000000000000000000081526004016107e49061335f565b60405180910390fd5b6000808154809291906107ff906133ae565b91905055506040518061014001604052806000548152602001878152602001868152602001858152602001600081526020013373ffffffffffffffffffffffffffffffffffffffff16815260200160011515815260200184815260200183815260200182815250600160008054815260200190815260200160002060008201518160000155602082015181600101908161089991906135a2565b5060408201518160020190816108af91906135a2565b50606082015181600301556080820151816004015560a08201518160050160006101000a81548173ffffffffffffffffffffffffffffffffffffffff021916908373ffffffffffffffffffffffffffffffffffffffff16021790555060c08201518160050160146101000a81548160ff02191690831515021790555060e08201518160060190805190602001906109479291906124d5565b50610100820151816007015561012082015181600801908161096991906135a2565b50905050600260003373ffffffffffffffffffffffffffffffffffffffff1673ffffffffffffffffffffffffffffffffffffffff16815260200190815260200160002060005490806001815401808255809150506001900390600052602060002001600090919091909150557f7186549a7b50d83ee07166d1e0f7dd7f6526479ac0536a9e8e313e01c214737b600054878787338787604051610a129796959493929190613674565b60405180910390a1505050505050565b606060056000838152602001908152602001600020805480602002602001604051908101604052809291908181526020016000905b82821015610ae957838290600052602060002090600202016040518060400160405290816000820160009054906101000a900473ffffffffffffffffffffffffffffffffffffffff1673ffffffffffffffffffffffffffffffffffffffff1673ffffffffffffffffffffffffffffffffffffffff16815260200160018201548152505081526020019060010190610a57565b505050509050919050565b60046020528160005260406000208181548110610b1057600080fd5b90600052602060002001600091509150505481565b600060608060008060008060606000600160008b81526020019081526020016000206040518061014001604052908160008201548152602001600182018054610b6d90613276565b80601f0160208091040260200160405190810160405280929190818152602001828054610b9990613276565b8015610be65780601f10610bbb57610100808354040283529160200191610be6565b820191906000526020600020905b815481529060010190602001808311610bc957829003601f168201915b50505050508152602001600282018054610bff90613276565b80601f0160208091040260200160405190810160405280929190818152602001828054610c2b90613276565b8015610c785780601f10610c4d57610100808354040283529160200191610c78565b820191906000526020600020905b815481529060010190602001808311610c5b57829003601f168201915b5050505050815260200160038201548152602001600482015481526020016005820160009054906101000a900473ffffffffffffffffffffffffffffffffffffffff1673ffffffffffffffffffffffffffffffffffffffff1673ffffffffffffffffffffffffffffffffffffffff1681526020016005820160149054906101000a900460ff1615151515815260200160068201805480602002602001604051908101604052809291908181526020018280548015610d8b57602002820191906000526020600020905b8160009054906101000a900473ffffffffffffffffffffffffffffffffffffffff1673ffffffffffffffffffffffffffffffffffffffff1681526020019060010190808311610d41575b5050505050815260200160078201548152602001600882018054610dae90613276565b80601f0160208091040260200160405190810160405280929190818152602001828054610dda90613276565b8015610e275780601f10610dfc57610100808354040283529160200191610e27565b820191906000526020600020905b815481529060010190602001808311610e0a57829003601f168201915b5050505050815250509050806000015181602001518260400151836060015184608001518560a001518660c001518760e001519850985098509850985098509850985050919395975091939597565b60005481565b60606000600460008473ffffffffffffffffffffffffffffffffffffffff1673ffffffffffffffffffffffffffffffffffffffff168152602001908152602001600020805480602002602001604051908101604052809291908181526020018280548015610f0957602002820191906000526020600020905b815481526020019060010190808311610ef5575b505050505090506000815167ffffffffffffffff811115610f2d57610f2c612a3e565b5b604051908082528060200260200182016040528015610f6657816020015b610f5361255f565b815260200190600190039081610f4b5790505b50905060005b82518110156112bc5760016000848381518110610f8c57610f8b6136f8565b5b602002602001015181526020019081526020016000206040518061014001604052908160008201548152602001600182018054610fc890613276565b80601f0160208091040260200160405190810160405280929190818152602001828054610ff490613276565b80156110415780601f1061101657610100808354040283529160200191611041565b820191906000526020600020905b81548152906001019060200180831161102457829003601f168201915b5050505050815260200160028201805461105a90613276565b80601f016020809104026020016040519081016040528092919081815260200182805461108690613276565b80156110d35780601f106110a8576101008083540402835291602001916110d3565b820191906000526020600020905b8154815290600101906020018083116110b657829003601f168201915b5050505050815260200160038201548152602001600482015481526020016005820160009054906101000a900473ffffffffffffffffffffffffffffffffffffffff1673ffffffffffffffffffffffffffffffffffffffff1673ffffffffffffffffffffffffffffffffffffffff1681526020016005820160149054906101000a900460ff16151515158152602001600682018054806020026020016040519081016040528092919081815260200182805480156111e657602002820191906000526020600020905b8160009054906101000a900473ffffffffffffffffffffffffffffffffffffffff1673ffffffffffffffffffffffffffffffffffffffff168152602001906001019080831161119c575b505050505081526020016007820154815260200160088201805461120990613276565b80601f016020809104026020016040519081016040528092919081815260200182805461123590613276565b80156112825780601f1061125757610100808354040283529160200191611282565b820191906000526020600020905b81548152906001019060200180831161126557829003601f168201915b50505050508152505082828151811061129e5761129d6136f8565b5b602002602001018190525080806112b4906133ae565b915050610f6c565b508092505050919050565b60606000805467ffffffffffffffff8111156112e6576112e5612a3e565b5b60405190808252806020026020018201604052801561131f57816020015b61130c61255f565b8152602001906001900390816113045790505b5090506000600190505b600054811161166b5760016000828152602001908152602001600020604051806101400160405290816000820154815260200160018201805461136b90613276565b80601f016020809104026020016040519081016040528092919081815260200182805461139790613276565b80156113e45780601f106113b9576101008083540402835291602001916113e4565b820191906000526020600020905b8154815290600101906020018083116113c757829003601f168201915b505050505081526020016002820180546113fd90613276565b80601f016020809104026020016040519081016040528092919081815260200182805461142990613276565b80156114765780601f1061144b57610100808354040283529160200191611476565b820191906000526020600020905b81548152906001019060200180831161145957829003601f168201915b5050505050815260200160038201548152602001600482015481526020016005820160009054906101000a900473ffffffffffffffffffffffffffffffffffffffff1673ffffffffffffffffffffffffffffffffffffffff1673ffffffffffffffffffffffffffffffffffffffff1681526020016005820160149054906101000a900460ff161515151581526020016006820180548060200260200160405190810160405280929190818152602001828054801561158957602002820191906000526020600020905b8160009054906101000a900473ffffffffffffffffffffffffffffffffffffffff1673ffffffffffffffffffffffffffffffffffffffff168152602001906001019080831161153f575b50505050508152602001600782015481526020016008820180546115ac90613276565b80601f01602080910402602001604051908101604052809291908181526020018280546115d890613276565b80156116255780601f106115fa57610100808354040283529160200191611625565b820191906000526020600020905b81548152906001019060200180831161160857829003601f168201915b5050505050815250508260018361163c9190613727565b8151811061164d5761164c6136f8565b5b60200260200101819052508080611663906133ae565b915050611329565b508091505090565b60606000600260008473ffffffffffffffffffffffffffffffffffffffff1673ffffffffffffffffffffffffffffffffffffffff16815260200190815260200160002080548060200260200160405190810160405280929190818152602001828054801561170057602002820191906000526020600020905b8154815260200190600101908083116116ec575b505050505090506000815167ffffffffffffffff81111561172457611723612a3e565b5b60405190808252806020026020018201604052801561175d57816020015b61174a61255f565b8152602001906001900390816117425790505b50905060005b8251811015611ab35760016000848381518110611783576117826136f8565b5b6020026020010151815260200190815260200160002060405180610140016040529081600082015481526020016001820180546117bf90613276565b80601f01602080910402602001604051908101604052809291908181526020018280546117eb90613276565b80156118385780601f1061180d57610100808354040283529160200191611838565b820191906000526020600020905b81548152906001019060200180831161181b57829003601f168201915b5050505050815260200160028201805461185190613276565b80601f016020809104026020016040519081016040528092919081815260200182805461187d90613276565b80156118ca5780601f1061189f576101008083540402835291602001916118ca565b820191906000526020600020905b8154815290600101906020018083116118ad57829003601f168201915b5050505050815260200160038201548152602001600482015481526020016005820160009054906101000a900473ffffffffffffffffffffffffffffffffffffffff1673ffffffffffffffffffffffffffffffffffffffff1673ffffffffffffffffffffffffffffffffffffffff1681526020016005820160149054906101000a900460ff16151515158152602001600682018054806020026020016040519081016040528092919081815260200182805480156119dd57602002820191906000526020600020905b8160009054906101000a900473ffffffffffffffffffffffffffffffffffffffff1673ffffffffffffffffffffffffffffffffffffffff1681526020019060010190808311611993575b5050505050815260200160078201548152602001600882018054611a0090613276565b80601f0160208091040260200160405190810160405280929190818152602001828054611a2c90613276565b8015611a795780601f10611a4e57610100808354040283529160200191611a79565b820191906000526020600020905b815481529060010190602001808311611a5c57829003601f168201915b505050505081525050828281518110611a9557611a946136f8565b5b60200260200101819052508080611aab906133ae565b915050611763565b508092505050919050565b600081118015611ad057506000548111155b611b0f576040517f08c379a0000000000000000000000000000000000000000000000000000000008152600401611b06906137a7565b60405180910390fd5b60006001600083815260200190815260200160002090508060050160149054906101000a900460ff16611b77576040517f08c379a0000000000000000000000000000000000000000000000000000000008152600401611b6e90613813565b60405180910390fd5b34816004016000828254611b8b9190613833565b925050819055506003600083815260200190815260200160002060405180604001604052803373ffffffffffffffffffffffffffffffffffffffff16815260200134815250908060018154018082558091505060019003906000526020600020906002020160009091909190915060008201518160000160006101000a81548173ffffffffffffffffffffffffffffffffffffffff021916908373ffffffffffffffffffffffffffffffffffffffff160217905550602082015181600101555050600460003373ffffffffffffffffffffffffffffffffffffffff1673ffffffffffffffffffffffffffffffffffffffff1681526020019081526020016000208290806001815401808255809150506001900390600052602060002001600090919091909150557fe555da28bdb778f65d22794d88927ebaeca03f7de9d1b7d39245bc8fb5ca078a823334604051611ce593929190613867565b60405180910390a180600301548160040154101580611d08575080600701544210155b15611d1757611d1682611d7c565b5b5050565b60036020528160005260406000208181548110611d3757600080fd5b9060005260206000209060020201600091509150508060000160009054906101000a900473ffffffffffffffffffffffffffffffffffffffff16908060010154905082565b60006001600083815260200190815260200160002090508060050160149054906101000a900460ff16611de4576040517f08c379a0000000000000000000000000000000000000000000000000000000008152600401611ddb90613813565b60405180910390fd5b80600301548160040154101580611dff575080600701544210155b611e3e576040517f08c379a0000000000000000000000000000000000000000000000000000000008152600401611e3590613910565b60405180910390fd5b60008160050160146101000a81548160ff02191690831515021790555060008160040154905060008260060180549050905060008183611e7e919061395f565b905060008284611e8e9190613990565b9050611ecf6040518060400160405280601181526020017f436f6e74726163742062616c616e63653a00000000000000000000000000000081525047612357565b611f0e6040518060400160405280600d81526020017f546f74616c207261697365643a0000000000000000000000000000000000000081525085612357565b611f4d6040518060400160405280601081526020017f526563697069656e7420636f756e743a0000000000000000000000000000000081525084612357565b60008367ffffffffffffffff811115611f6957611f68612a3e565b5b604051908082528060200260200182016040528015611f975781602001602082028036833780820191505090505b50905060005b8481101561230f5783828281518110611fb957611fb86136f8565b5b602002602001018181525050600083111561200957818181518110611fe157611fe06136f8565b5b602002602001018051809190611ff6906133ae565b815250508280612005906139c1565b9350505b60056000898152602001908152602001600020604051806040016040528089600601848154811061203d5761203c6136f8565b5b9060005260206000200160009054906101000a900473ffffffffffffffffffffffffffffffffffffffff1673ffffffffffffffffffffffffffffffffffffffff168152602001848481518110612096576120956136f8565b5b6020026020010151815250908060018154018082558091505060019003906000526020600020906002020160009091909190915060008201518160000160006101000a81548173ffffffffffffffffffffffffffffffffffffffff021916908373ffffffffffffffffffffffffffffffffffffffff16021790555060208201518160010155505061219c6040518060400160405280601581526020017f53656e64696e6720746f20726563697069656e743a000000000000000000000081525088600601838154811061216c5761216b6136f8565b5b9060005260206000200160009054906101000a900473ffffffffffffffffffffffffffffffffffffffff166123f3565b6121f56040518060400160405280600781526020017f416d6f756e743a000000000000000000000000000000000000000000000000008152508383815181106121e8576121e76136f8565b5b6020026020010151612357565b600087600601828154811061220d5761220c6136f8565b5b9060005260206000200160009054906101000a900473ffffffffffffffffffffffffffffffffffffffff1673ffffffffffffffffffffffffffffffffffffffff16838381518110612261576122606136f8565b5b602002602001015160405161227590613a1b565b60006040518083038185875af1925050503d80600081146122b2576040519150601f19603f3d011682016040523d82523d6000602084013e6122b7565b606091505b50509050806122fb576040517f08c379a00000000000000000000000000000000000000000000000000000000081526004016122f290613aa2565b60405180910390fd5b508080612307906133ae565b915050611f9d565b507fc800c5d39e8ce985377f5a08f0c8eb3e9c562d566578cfb81d49140df6c563a687876006018360405161234693929190613c5d565b60405180910390a150505050505050565b6123ef828260405160240161236d929190613ca2565b6040516020818303038152906040527fb60e72cc000000000000000000000000000000000000000000000000000000007bffffffffffffffffffffffffffffffffffffffffffffffffffffffff19166020820180517bffffffffffffffffffffffffffffffffffffffffffffffffffffffff838183161783525050505061248f565b5050565b61248b8282604051602401612409929190613cd2565b6040516020818303038152906040527f319af333000000000000000000000000000000000000000000000000000000007bffffffffffffffffffffffffffffffffffffffffffffffffffffffff19166020820180517bffffffffffffffffffffffffffffffffffffffffffffffffffffffff838183161783525050505061248f565b5050565b6124a68161249e6124a96124ca565b63ffffffff16565b50565b60006a636f6e736f6c652e6c6f679050600080835160208501845afa505050565b6125ca819050919050565b82805482825590600052602060002090810192821561254e579160200282015b8281111561254d5782518260006101000a81548173ffffffffffffffffffffffffffffffffffffffff021916908373ffffffffffffffffffffffffffffffffffffffff160217905550916020019190600101906124f5565b5b50905061255b91906125d4565b5090565b6040518061014001604052806000815260200160608152602001606081526020016000815260200160008152602001600073ffffffffffffffffffffffffffffffffffffffff1681526020016000151581526020016060815260200160008152602001606081525090565b6125d2613d02565b565b5b808211156125ed5760008160009055506001016125d5565b5090565b6000604051905090565b600080fd5b600080fd5b6000819050919050565b61261881612605565b811461262357600080fd5b50565b6000813590506126358161260f565b92915050565b600060208284031215612651576126506125fb565b5b600061265f84828501612626565b91505092915050565b61267181612605565b82525050565b600081519050919050565b600082825260208201905092915050565b60005b838110156126b1578082015181840152602081019050612696565b60008484015250505050565b6000601f19601f8301169050919050565b60006126d982612677565b6126e38185612682565b93506126f3818560208601612693565b6126fc816126bd565b840191505092915050565b600073ffffffffffffffffffffffffffffffffffffffff82169050919050565b600061273282612707565b9050919050565b61274281612727565b82525050565b60008115159050919050565b61275d81612748565b82525050565b600061012082019050612779600083018c612668565b818103602083015261278b818b6126ce565b9050818103604083015261279f818a6126ce565b90506127ae6060830189612668565b6127bb6080830188612668565b6127c860a0830187612739565b6127d560c0830186612754565b6127e260e0830185612668565b8181036101008301526127f581846126ce565b90509a9950505050505050505050565b600061281082612707565b9050919050565b61282081612805565b811461282b57600080fd5b50565b60008135905061283d81612817565b92915050565b6000806040838503121561285a576128596125fb565b5b60006128688582860161282e565b925050602061287985828601612626565b9150509250929050565b60006020820190506128986000830184612668565b92915050565b600081519050919050565b600082825260208201905092915050565b6000819050602082019050919050565b6128d381612805565b82525050565b6128e281612605565b82525050565b6040820160008201516128fe60008501826128ca565b50602082015161291160208501826128d9565b50505050565b600061292383836128e8565b60408301905092915050565b6000602082019050919050565b60006129478261289e565b61295181856128a9565b935061295c836128ba565b8060005b8381101561298d5781516129748882612917565b975061297f8361292f565b925050600181019050612960565b5085935050505092915050565b600060208201905081810360008301526129b4818461293c565b905092915050565b600080604083850312156129d3576129d26125fb565b5b60006129e185828601612626565b92505060206129f285828601612626565b9150509250929050565b612a0581612805565b82525050565b6000604082019050612a2060008301856129fc565b612a2d6020830184612668565b9392505050565b600080fd5b600080fd5b7f4e487b7100000000000000000000000000000000000000000000000000000000600052604160045260246000fd5b612a76826126bd565b810181811067ffffffffffffffff82111715612a9557612a94612a3e565b5b80604052505050565b6000612aa86125f1565b9050612ab48282612a6d565b919050565b600067ffffffffffffffff821115612ad457612ad3612a3e565b5b612add826126bd565b9050602081019050919050565b82818337600083830152505050565b6000612b0c612b0784612ab9565b612a9e565b905082815260208101848484011115612b2857612b27612a39565b5b612b33848285612aea565b509392505050565b600082601f830112612b5057612b4f612a34565b5b8135612b60848260208601612af9565b91505092915050565b600067ffffffffffffffff821115612b8457612b83612a3e565b5b602082029050602081019050919050565b600080fd5b6000612bad612ba884612b69565b612a9e565b90508083825260208201905060208402830185811115612bd057612bcf612b95565b5b835b81811015612bf95780612be5888261282e565b845260208401935050602081019050612bd2565b5050509392505050565b600082601f830112612c1857612c17612a34565b5b8135612c28848260208601612b9a565b91505092915050565b60008060008060008060c08789031215612c4e57612c4d6125fb565b5b600087013567ffffffffffffffff811115612c6c57612c6b612600565b5b612c7889828a01612b3b565b965050602087013567ffffffffffffffff811115612c9957612c98612600565b5b612ca589828a01612b3b565b9550506040612cb689828a01612626565b945050606087013567ffffffffffffffff811115612cd757612cd6612600565b5b612ce389828a01612c03565b9350506080612cf489828a01612626565b92505060a087013567ffffffffffffffff811115612d1557612d14612600565b5b612d2189828a01612b3b565b9150509295509295509295565b600081519050919050565b600082825260208201905092915050565b6000819050602082019050919050565b604082016000820151612d7060008501826128ca565b506020820151612d8360208501826128d9565b50505050565b6000612d958383612d5a565b60408301905092915050565b6000602082019050919050565b6000612db982612d2e565b612dc38185612d39565b9350612dce83612d4a565b8060005b83811015612dff578151612de68882612d89565b9750612df183612da1565b925050600181019050612dd2565b5085935050505092915050565b60006020820190508181036000830152612e268184612dae565b905092915050565b600081519050919050565b600082825260208201905092915050565b6000819050602082019050919050565b6000612e6683836128ca565b60208301905092915050565b6000602082019050919050565b6000612e8a82612e2e565b612e948185612e39565b9350612e9f83612e4a565b8060005b83811015612ed0578151612eb78882612e5a565b9750612ec283612e72565b925050600181019050612ea3565b5085935050505092915050565b600061010082019050612ef3600083018b612668565b8181036020830152612f05818a6126ce565b90508181036040830152612f1981896126ce565b9050612f286060830188612668565b612f356080830187612668565b612f4260a08301866129fc565b612f4f60c0830185612754565b81810360e0830152612f618184612e7f565b90509998505050505050505050565b600060208284031215612f8657612f856125fb565b5b6000612f948482850161282e565b91505092915050565b600081519050919050565b600082825260208201905092915050565b6000819050602082019050919050565b600082825260208201905092915050565b6000612fe582612677565b612fef8185612fc9565b9350612fff818560208601612693565b613008816126bd565b840191505092915050565b61301c81612727565b82525050565b61302b81612748565b82525050565b600082825260208201905092915050565b600061304d82612e2e565b6130578185613031565b935061306283612e4a565b8060005b8381101561309357815161307a8882612e5a565b975061308583612e72565b925050600181019050613066565b5085935050505092915050565b6000610140830160008301516130b960008601826128d9565b50602083015184820360208601526130d18282612fda565b915050604083015184820360408601526130eb8282612fda565b915050606083015161310060608601826128d9565b50608083015161311360808601826128d9565b5060a083015161312660a0860182613013565b5060c083015161313960c0860182613022565b5060e083015184820360e08601526131518282613042565b9150506101008301516131686101008601826128d9565b506101208301518482036101208601526131828282612fda565b9150508091505092915050565b600061319b83836130a0565b905092915050565b6000602082019050919050565b60006131bb82612f9d565b6131c58185612fa8565b9350836020820285016131d785612fb9565b8060005b8581101561321357848403895281516131f4858261318f565b94506131ff836131a3565b925060208a019950506001810190506131db565b50829750879550505050505092915050565b6000602082019050818103600083015261323f81846131b0565b905092915050565b7f4e487b7100000000000000000000000000000000000000000000000000000000600052602260045260246000fd5b6000600282049050600182168061328e57607f821691505b6020821081036132a1576132a0613247565b5b50919050565b7f4174206c65617374206f6e6520726563697069656e7420726571756972656400600082015250565b60006132dd601f83612682565b91506132e8826132a7565b602082019050919050565b6000602082019050818103600083015261330c816132d0565b9050919050565b7f446561646c696e65206d75737420626520696e20746865206675747572650000600082015250565b6000613349601e83612682565b915061335482613313565b602082019050919050565b600060208201905081810360008301526133788161333c565b9050919050565b7f4e487b7100000000000000000000000000000000000000000000000000000000600052601160045260246000fd5b60006133b982612605565b91507fffffffffffffffffffffffffffffffffffffffffffffffffffffffffffffffff82036133eb576133ea61337f565b5b600182019050919050565b60008190508160005260206000209050919050565b60006020601f8301049050919050565b600082821b905092915050565b6000600883026134587fffffffffffffffffffffffffffffffffffffffffffffffffffffffffffffffff8261341b565b613462868361341b565b95508019841693508086168417925050509392505050565b6000819050919050565b600061349f61349a61349584612605565b61347a565b612605565b9050919050565b6000819050919050565b6134b983613484565b6134cd6134c5826134a6565b848454613428565b825550505050565b600090565b6134e26134d5565b6134ed8184846134b0565b505050565b5b81811015613511576135066000826134da565b6001810190506134f3565b5050565b601f82111561355657613527816133f6565b6135308461340b565b8101602085101561353f578190505b61355361354b8561340b565b8301826134f2565b50505b505050565b600082821c905092915050565b60006135796000198460080261355b565b1980831691505092915050565b60006135928383613568565b9150826002028217905092915050565b6135ab82612677565b67ffffffffffffffff8111156135c4576135c3612a3e565b5b6135ce8254613276565b6135d9828285613515565b600060209050601f83116001811461360c57600084156135fa578287015190505b6136048582613586565b86555061366c565b601f19841661361a866133f6565b60005b828110156136425784890151825560018201915060208501945060208101905061361d565b8683101561365f578489015161365b601f891682613568565b8355505b6001600288020188555050505b505050505050565b600060e082019050613689600083018a612668565b818103602083015261369b81896126ce565b905081810360408301526136af81886126ce565b90506136be6060830187612668565b6136cb60808301866129fc565b6136d860a0830185612668565b81810360c08301526136ea81846126ce565b905098975050505050505050565b7f4e487b7100000000000000000000000000000000000000000000000000000000600052603260045260246000fd5b600061373282612605565b915061373d83612605565b92508282039050818111156137555761375461337f565b5b92915050565b7f496e76616c69642063616d706169676e20494400000000000000000000000000600082015250565b6000613791601383612682565b915061379c8261375b565b602082019050919050565b600060208201905081810360008301526137c081613784565b9050919050565b7f43616d706169676e206973206e6f742061637469766500000000000000000000600082015250565b60006137fd601683612682565b9150613808826137c7565b602082019050919050565b6000602082019050818103600083015261382c816137f0565b9050919050565b600061383e82612605565b915061384983612605565b92508282019050808211156138615761386061337f565b5b92915050565b600060608201905061387c6000830186612668565b61388960208301856129fc565b6138966040830184612668565b949350505050565b7f476f616c206e6f742072656163686564206f7220646561646c696e65206e6f7460008201527f2072656163686564000000000000000000000000000000000000000000000000602082015250565b60006138fa602883612682565b91506139058261389e565b604082019050919050565b60006020820190508181036000830152613929816138ed565b9050919050565b7f4e487b7100000000000000000000000000000000000000000000000000000000600052601260045260246000fd5b600061396a82612605565b915061397583612605565b92508261398557613984613930565b5b828204905092915050565b600061399b82612605565b91506139a683612605565b9250826139b6576139b5613930565b5b828206905092915050565b60006139cc82612605565b9150600082036139df576139de61337f565b5b600182039050919050565b600081905092915050565b50565b6000613a056000836139ea565b9150613a10826139f5565b600082019050919050565b6000613a26826139f8565b9150819050919050565b7f4661696c656420746f2073656e6420457468657220746f20726563697069656e60008201527f7400000000000000000000000000000000000000000000000000000000000000602082015250565b6000613a8c602183612682565b9150613a9782613a30565b604082019050919050565b60006020820190508181036000830152613abb81613a7f565b9050919050565b600081549050919050565b60008190508160005260206000209050919050565b60008160001c9050919050565b600073ffffffffffffffffffffffffffffffffffffffff82169050919050565b6000613b22613b1d83613ae2565b613aef565b9050919050565b6000613b358254613b0f565b9050919050565b6000600182019050919050565b6000613b5482613ac2565b613b5e8185612e39565b9350613b6983613acd565b8060005b83811015613ba157613b7e82613b29565b613b888882612e5a565b9750613b9383613b3c565b925050600181019050613b6d565b5085935050505092915050565b600081519050919050565b600082825260208201905092915050565b6000819050602082019050919050565b6000613be683836128d9565b60208301905092915050565b6000602082019050919050565b6000613c0a82613bae565b613c148185613bb9565b9350613c1f83613bca565b8060005b83811015613c50578151613c378882613bda565b9750613c4283613bf2565b925050600181019050613c23565b5085935050505092915050565b6000606082019050613c726000830186612668565b8181036020830152613c848185613b49565b90508181036040830152613c988184613bff565b9050949350505050565b60006040820190508181036000830152613cbc81856126ce565b9050613ccb6020830184612668565b9392505050565b60006040820190508181036000830152613cec81856126ce565b9050613cfb60208301846129fc565b9392505050565b7f4e487b7100000000000000000000000000000000000000000000000000000000600052605160045260246000fdfea2646970667358221220feb9d9c01cf9855aeb69f1f6f8f41640c4a71b71fd1c7809851844a1ed17749764736f6c63430008130033",
  "linkReferences": {},
  "deployedLinkReferences": {}
}