{
  "_format": "hh-sol-artifact-1",
  "contractName": "DonationPlatform",
  "sourceName": "contracts/Lock.sol",
  "abi": [
    {
      "anonymous": false,
      "inputs": [
        {
          "indexed": false,
          "internalType": "uint256",
          "name": "id",
          "type": "uint256"
        },
        {
          "indexed": false,
          "internalType": "string",
          "name": "title",
          "type": "string"
        },
        {
          "indexed": false,
          "internalType": "string",
          "name": "description",
          "type": "string"
        },
        {
          "indexed": false,
          "internalType": "uint256",
          "name": "goal",
          "type": "uint256"
        },
        {
          "indexed": false,
          "internalType": "address",
          "name": "owner",
          "type": "address"
        },
        {
          "indexed": false,
          "internalType": "uint256",
          "name": "deadline",
          "type": "uint256"
        },
        {
          "indexed": false,
          "internalType": "string",
          "name": "image",
          "type": "string"
        }
      ],
      "name": "CampaignCreated",
      "type": "event"
    },
    {
      "anonymous": false,
      "inputs": [
        {
          "indexed": false,
          "internalType": "uint256",
          "name": "campaignId",
          "type": "uint256"
        },
        {
          "indexed": false,
          "internalType": "address",
          "name": "donor",
          "type": "address"
        },
        {
          "indexed": false,
          "internalType": "uint256",
          "name": "amount",
          "type": "uint256"
        }
      ],
      "name": "DonationMade",
      "type": "event"
    },
    {
      "anonymous": false,
      "inputs": [
        {
          "indexed": false,
          "internalType": "uint256",
          "name": "campaignId",
          "type": "uint256"
        },
        {
          "indexed": false,
          "internalType": "address[]",
          "name": "recipients",
          "type": "address[]"
        },
        {
          "indexed": false,
          "internalType": "uint256[]",
          "name": "amounts",
          "type": "uint256[]"
        }
      ],
      "name": "FundsDistributed",
      "type": "event"
    },
    {
      "inputs": [],
      "name": "campaignCount",
      "outputs": [
        {
          "internalType": "uint256",
          "name": "",
          "type": "uint256"
        }
      ],
      "stateMutability": "view",
      "type": "function"
    },
    {
      "inputs": [
        {
          "internalType": "uint256",
          "name": "",
          "type": "uint256"
        },
        {
          "internalType": "uint256",
          "name": "",
          "type": "uint256"
        }
      ],
      "name": "campaignDonors",
      "outputs": [
        {
          "internalType": "address",
          "name": "donorAddress",
          "type": "address"
        },
        {
          "internalType": "uint256",
          "name": "amount",
          "type": "uint256"
        }
      ],
      "stateMutability": "view",
      "type": "function"
    },
    {
      "inputs": [
        {
          "internalType": "uint256",
          "name": "",
          "type": "uint256"
        }
      ],
      "name": "campaigns",
      "outputs": [
        {
          "internalType": "uint256",
          "name": "id",
          "type": "uint256"
        },
        {
          "internalType": "string",
          "name": "title",
          "type": "string"
        },
        {
          "internalType": "string",
          "name": "description",
          "type": "string"
        },
        {
          "internalType": "uint256",
          "name": "goal",
          "type": "uint256"
        },
        {
          "internalType": "uint256",
          "name": "raised",
          "type": "uint256"
        },
        {
          "internalType": "address payable",
          "name": "owner",
          "type": "address"
        },
        {
          "internalType": "bool",
          "name": "isActive",
          "type": "bool"
        },
        {
          "internalType": "uint256",
          "name": "deadline",
          "type": "uint256"
        },
        {
          "internalType": "string",
          "name": "image",
          "type": "string"
        }
      ],
      "stateMutability": "view",
      "type": "function"
    },
    {
      "inputs": [
        {
          "internalType": "string",
          "name": "_title",
          "type": "string"
        },
        {
          "internalType": "string",
          "name": "_description",
          "type": "string"
        },
        {
          "internalType": "uint256",
          "name": "_goal",
          "type": "uint256"
        },
        {
          "internalType": "address[]",
          "name": "_recipients",
          "type": "address[]"
        },
        {
          "internalType": "uint256",
          "name": "_deadline",
          "type": "uint256"
        },
        {
          "internalType": "string",
          "name": "_image",
          "type": "string"
        }
      ],
      "name": "createCampaign",
      "outputs": [],
      "stateMutability": "nonpayable",
      "type": "function"
    },
    {
      "inputs": [
        {
          "internalType": "uint256",
          "name": "_campaignId",
          "type": "uint256"
        }
      ],
      "name": "donate",
      "outputs": [],
      "stateMutability": "payable",
      "type": "function"
    },
    {
      "inputs": [],
      "name": "getAllCampaigns",
      "outputs": [
        {
          "components": [
            {
              "internalType": "uint256",
              "name": "id",
              "type": "uint256"
            },
            {
              "internalType": "string",
              "name": "title",
              "type": "string"
            },
            {
              "internalType": "string",
              "name": "description",
              "type": "string"
            },
            {
              "internalType": "uint256",
              "name": "goal",
              "type": "uint256"
            },
            {
              "internalType": "uint256",
              "name": "raised",
              "type": "uint256"
            },
            {
              "internalType": "address payable",
              "name": "owner",
              "type": "address"
            },
            {
              "internalType": "bool",
              "name": "isActive",
              "type": "bool"
            },
            {
              "internalType": "address[]",
              "name": "recipients",
              "type": "address[]"
            },
            {
              "internalType": "uint256",
              "name": "deadline",
              "type": "uint256"
            },
            {
              "internalType": "string",
              "name": "image",
              "type": "string"
            }
          ],
          "internalType": "struct DonationPlatform.Campaign[]",
          "name": "",
          "type": "tuple[]"
        }
      ],
      "stateMutability": "view",
      "type": "function"
    },
    {
      "inputs": [
        {
          "internalType": "uint256",
          "name": "_campaignId",
          "type": "uint256"
        }
      ],
      "name": "getCampaign",
      "outputs": [
        {
          "internalType": "uint256",
          "name": "id",
          "type": "uint256"
        },
        {
          "internalType": "string",
          "name": "title",
          "type": "string"
        },
        {
          "internalType": "string",
          "name": "description",
          "type": "string"
        },
        {
          "internalType": "uint256",
          "name": "goal",
          "type": "uint256"
        },
        {
          "internalType": "uint256",
          "name": "raised",
          "type": "uint256"
        },
        {
          "internalType": "address",
          "name": "owner",
          "type": "address"
        },
        {
          "internalType": "bool",
          "name": "isActive",
          "type": "bool"
        },
        {
          "internalType": "address[]",
          "name": "recipients",
          "type": "address[]"
        }
      ],
      "stateMutability": "view",
      "type": "function"
    },
    {
      "inputs": [
        {
          "internalType": "uint256",
          "name": "_campaignId",
          "type": "uint256"
        }
      ],
      "name": "getCampaignDonors",
      "outputs": [
        {
          "components": [
            {
              "internalType": "address",
              "name": "donorAddress",
              "type": "address"
            },
            {
              "internalType": "uint256",
              "name": "amount",
              "type": "uint256"
            }
          ],
          "internalType": "struct DonationPlatform.Donor[]",
          "name": "",
          "type": "tuple[]"
        }
      ],
      "stateMutability": "view",
      "type": "function"
    },
    {
      "inputs": [
        {
          "internalType": "address",
          "name": "_user",
          "type": "address"
        }
      ],
      "name": "getUserCampaigns",
      "outputs": [
        {
          "components": [
            {
              "internalType": "uint256",
              "name": "id",
              "type": "uint256"
            },
            {
              "internalType": "string",
              "name": "title",
              "type": "string"
            },
            {
              "internalType": "string",
              "name": "description",
              "type": "string"
            },
            {
              "internalType": "uint256",
              "name": "goal",
              "type": "uint256"
            },
            {
              "internalType": "uint256",
              "name": "raised",
              "type": "uint256"
            },
            {
              "internalType": "address payable",
              "name": "owner",
              "type": "address"
            },
            {
              "internalType": "bool",
              "name": "isActive",
              "type": "bool"
            },
            {
              "internalType": "address[]",
              "name": "recipients",
              "type": "address[]"
            },
            {
              "internalType": "uint256",
              "name": "deadline",
              "type": "uint256"
            },
            {
              "internalType": "string",
              "name": "image",
              "type": "string"
            }
          ],
          "internalType": "struct DonationPlatform.Campaign[]",
          "name": "",
          "type": "tuple[]"
        }
      ],
      "stateMutability": "view",
      "type": "function"
    },
    {
      "inputs": [
        {
          "internalType": "address",
          "name": "_user",
          "type": "address"
        }
      ],
      "name": "getUserDonations",
      "outputs": [
        {
          "components": [
            {
              "internalType": "uint256",
              "name": "id",
              "type": "uint256"
            },
            {
              "internalType": "string",
              "name": "title",
              "type": "string"
            },
            {
              "internalType": "string",
              "name": "description",
              "type": "string"
            },
            {
              "internalType": "uint256",
              "name": "goal",
              "type": "uint256"
            },
            {
              "internalType": "uint256",
              "name": "raised",
              "type": "uint256"
            },
            {
              "internalType": "address payable",
              "name": "owner",
              "type": "address"
            },
            {
              "internalType": "bool",
              "name": "isActive",
              "type": "bool"
            },
            {
              "internalType": "address[]",
              "name": "recipients",
              "type": "address[]"
            },
            {
              "internalType": "uint256",
              "name": "deadline",
              "type": "uint256"
            },
            {
              "internalType": "string",
              "name": "image",
              "type": "string"
            }
          ],
          "internalType": "struct DonationPlatform.Campaign[]",
          "name": "",
          "type": "tuple[]"
        }
      ],
      "stateMutability": "view",
      "type": "function"
    },
    {
      "inputs": [
        {
          "internalType": "address",
          "name": "",
          "type": "address"
        },
        {
          "internalType": "uint256",
          "name": "",
          "type": "uint256"
        }
      ],
      "name": "userCampaigns",
      "outputs": [
        {
          "internalType": "uint256",
          "name": "",
          "type": "uint256"
        }
      ],
      "stateMutability": "view",
      "type": "function"
    },
    {
      "inputs": [
        {
          "internalType": "address",
          "name": "",
          "type": "address"
        },
        {
          "internalType": "uint256",
          "name": "",
          "type": "uint256"
        }
      ],
      "name": "userDonations",
      "outputs": [
        {
          "internalType": "uint256",
          "name": "",
          "type": "uint256"
        }
      ],
      "stateMutability": "view",
      "type": "function"
    }
  ],
  "bytecode": "0x608060405234801561001057600080fd5b5061366e806100206000396000f3fe6080604052600436106100a75760003560e01c80637274e30d116100645780637274e30d14610215578063732435b21461024057806386cdf6041461027d578063a1e5084c146102a8578063f14faf6f146102e5578063f25e1e9314610301576100a7565b8063141961bc146100ac57806319ac74bd146100f1578063209b7d5f1461012e57806326134a1b1461016b5780634933e631146101945780635598f8cc146101d1575b600080fd5b3480156100b857600080fd5b506100d360048036038101906100ce91906120f7565b61033f565b6040516100e89998979695949392919061221f565b60405180910390f35b3480156100fd57600080fd5b50610118600480360381019061011391906122ff565b610552565b604051610125919061233f565b60405180910390f35b34801561013a57600080fd5b50610155600480360381019061015091906120f7565b610583565b6040516101629190612456565b60405180910390f35b34801561017757600080fd5b50610192600480360381019061018d9190612675565b610655565b005b3480156101a057600080fd5b506101bb60048036038101906101b691906122ff565b610910565b6040516101c8919061233f565b60405180910390f35b3480156101dd57600080fd5b506101f860048036038101906101f391906120f7565b610941565b60405161020c989796959493929190612830565b60405180910390f35b34801561022157600080fd5b5061022a610c92565b604051610237919061233f565b60405180910390f35b34801561024c57600080fd5b50610267600480360381019061026291906128c3565b610c98565b6040516102749190612b78565b60405180910390f35b34801561028957600080fd5b506102926110e3565b60405161029f9190612b78565b60405180910390f35b3480156102b457600080fd5b506102cf60048036038101906102ca91906128c3565b61148f565b6040516102dc9190612b78565b60405180910390f35b6102ff60048036038101906102fa91906120f7565b6118da565b005b34801561030d57600080fd5b5061032860048036038101906103239190612b9a565b611c08565b604051610336929190612bda565b60405180910390f35b600160205280600052604060002060009150905080600001549080600101805461036890612c32565b80601f016020809104026020016040519081016040528092919081815260200182805461039490612c32565b80156103e15780601f106103b6576101008083540402835291602001916103e1565b820191906000526020600020905b8154815290600101906020018083116103c457829003601f168201915b5050505050908060020180546103f690612c32565b80601f016020809104026020016040519081016040528092919081815260200182805461042290612c32565b801561046f5780601f106104445761010080835404028352916020019161046f565b820191906000526020600020905b81548152906001019060200180831161045257829003601f168201915b5050505050908060030154908060040154908060050160009054906101000a900473ffffffffffffffffffffffffffffffffffffffff16908060050160149054906101000a900460ff16908060070154908060080180546104cf90612c32565b80601f01602080910402602001604051908101604052809291908181526020018280546104fb90612c32565b80156105485780601f1061051d57610100808354040283529160200191610548565b820191906000526020600020905b81548152906001019060200180831161052b57829003601f168201915b5050505050905089565b6002602052816000526040600020818154811061056e57600080fd5b90600052602060002001600091509150505481565b606060036000838152602001908152602001600020805480602002602001604051908101604052809291908181526020016000905b8282101561064a57838290600052602060002090600202016040518060400160405290816000820160009054906101000a900473ffffffffffffffffffffffffffffffffffffffff1673ffffffffffffffffffffffffffffffffffffffff1673ffffffffffffffffffffffffffffffffffffffff168152602001600182015481525050815260200190600101906105b8565b505050509050919050565b6000835111610699576040517f08c379a000000000000000000000000000000000000000000000000000000000815260040161069090612caf565b60405180910390fd5b4282116106db576040517f08c379a00000000000000000000000000000000000000000000000000000000081526004016106d290612d1b565b60405180910390fd5b6000808154809291906106ed90612d6a565b91905055506040518061014001604052806000548152602001878152602001868152602001858152602001600081526020013373ffffffffffffffffffffffffffffffffffffffff1681526020016001151581526020018481526020018381526020018281525060016000805481526020019081526020016000206000820151816000015560208201518160010190816107879190612f5e565b50604082015181600201908161079d9190612f5e565b50606082015181600301556080820151816004015560a08201518160050160006101000a81548173ffffffffffffffffffffffffffffffffffffffff021916908373ffffffffffffffffffffffffffffffffffffffff16021790555060c08201518160050160146101000a81548160ff02191690831515021790555060e0820151816006019080519060200190610835929190611f9b565b5061010082015181600701556101208201518160080190816108579190612f5e565b50905050600260003373ffffffffffffffffffffffffffffffffffffffff1673ffffffffffffffffffffffffffffffffffffffff16815260200190815260200160002060005490806001815401808255809150506001900390600052602060002001600090919091909150557f7186549a7b50d83ee07166d1e0f7dd7f6526479ac0536a9e8e313e01c214737b6000548787873387876040516109009796959493929190613030565b60405180910390a1505050505050565b6004602052816000526040600020818154811061092c57600080fd5b90600052602060002001600091509150505481565b600060608060008060008060606000600160008b8152602001908152602001600020604051806101400160405290816000820154815260200160018201805461098990612c32565b80601f01602080910402602001604051908101604052809291908181526020018280546109b590612c32565b8015610a025780601f106109d757610100808354040283529160200191610a02565b820191906000526020600020905b8154815290600101906020018083116109e557829003601f168201915b50505050508152602001600282018054610a1b90612c32565b80601f0160208091040260200160405190810160405280929190818152602001828054610a4790612c32565b8015610a945780601f10610a6957610100808354040283529160200191610a94565b820191906000526020600020905b815481529060010190602001808311610a7757829003601f168201915b5050505050815260200160038201548152602001600482015481526020016005820160009054906101000a900473ffffffffffffffffffffffffffffffffffffffff1673ffffffffffffffffffffffffffffffffffffffff1673ffffffffffffffffffffffffffffffffffffffff1681526020016005820160149054906101000a900460ff1615151515815260200160068201805480602002602001604051908101604052809291908181526020018280548015610ba757602002820191906000526020600020905b8160009054906101000a900473ffffffffffffffffffffffffffffffffffffffff1673ffffffffffffffffffffffffffffffffffffffff1681526020019060010190808311610b5d575b5050505050815260200160078201548152602001600882018054610bca90612c32565b80601f0160208091040260200160405190810160405280929190818152602001828054610bf690612c32565b8015610c435780601f10610c1857610100808354040283529160200191610c43565b820191906000526020600020905b815481529060010190602001808311610c2657829003601f168201915b5050505050815250509050806000015181602001518260400151836060015184608001518560a001518660c001518760e001519850985098509850985098509850985050919395975091939597565b60005481565b60606000600460008473ffffffffffffffffffffffffffffffffffffffff1673ffffffffffffffffffffffffffffffffffffffff168152602001908152602001600020805480602002602001604051908101604052809291908181526020018280548015610d2557602002820191906000526020600020905b815481526020019060010190808311610d11575b505050505090506000815167ffffffffffffffff811115610d4957610d48612482565b5b604051908082528060200260200182016040528015610d8257816020015b610d6f612025565b815260200190600190039081610d675790505b50905060005b82518110156110d85760016000848381518110610da857610da76130b4565b5b602002602001015181526020019081526020016000206040518061014001604052908160008201548152602001600182018054610de490612c32565b80601f0160208091040260200160405190810160405280929190818152602001828054610e1090612c32565b8015610e5d5780601f10610e3257610100808354040283529160200191610e5d565b820191906000526020600020905b815481529060010190602001808311610e4057829003601f168201915b50505050508152602001600282018054610e7690612c32565b80601f0160208091040260200160405190810160405280929190818152602001828054610ea290612c32565b8015610eef5780601f10610ec457610100808354040283529160200191610eef565b820191906000526020600020905b815481529060010190602001808311610ed257829003601f168201915b5050505050815260200160038201548152602001600482015481526020016005820160009054906101000a900473ffffffffffffffffffffffffffffffffffffffff1673ffffffffffffffffffffffffffffffffffffffff1673ffffffffffffffffffffffffffffffffffffffff1681526020016005820160149054906101000a900460ff161515151581526020016006820180548060200260200160405190810160405280929190818152602001828054801561100257602002820191906000526020600020905b8160009054906101000a900473ffffffffffffffffffffffffffffffffffffffff1673ffffffffffffffffffffffffffffffffffffffff1681526020019060010190808311610fb8575b505050505081526020016007820154815260200160088201805461102590612c32565b80601f016020809104026020016040519081016040528092919081815260200182805461105190612c32565b801561109e5780601f106110735761010080835404028352916020019161109e565b820191906000526020600020905b81548152906001019060200180831161108157829003601f168201915b5050505050815250508282815181106110ba576110b96130b4565b5b602002602001018190525080806110d090612d6a565b915050610d88565b508092505050919050565b60606000805467ffffffffffffffff81111561110257611101612482565b5b60405190808252806020026020018201604052801561113b57816020015b611128612025565b8152602001906001900390816111205790505b5090506000600190505b60005481116114875760016000828152602001908152602001600020604051806101400160405290816000820154815260200160018201805461118790612c32565b80601f01602080910402602001604051908101604052809291908181526020018280546111b390612c32565b80156112005780601f106111d557610100808354040283529160200191611200565b820191906000526020600020905b8154815290600101906020018083116111e357829003601f168201915b5050505050815260200160028201805461121990612c32565b80601f016020809104026020016040519081016040528092919081815260200182805461124590612c32565b80156112925780601f1061126757610100808354040283529160200191611292565b820191906000526020600020905b81548152906001019060200180831161127557829003601f168201915b5050505050815260200160038201548152602001600482015481526020016005820160009054906101000a900473ffffffffffffffffffffffffffffffffffffffff1673ffffffffffffffffffffffffffffffffffffffff1673ffffffffffffffffffffffffffffffffffffffff1681526020016005820160149054906101000a900460ff16151515158152602001600682018054806020026020016040519081016040528092919081815260200182805480156113a557602002820191906000526020600020905b8160009054906101000a900473ffffffffffffffffffffffffffffffffffffffff1673ffffffffffffffffffffffffffffffffffffffff168152602001906001019080831161135b575b50505050508152602001600782015481526020016008820180546113c890612c32565b80601f01602080910402602001604051908101604052809291908181526020018280546113f490612c32565b80156114415780601f1061141657610100808354040283529160200191611441565b820191906000526020600020905b81548152906001019060200180831161142457829003601f168201915b5050505050815250508260018361145891906130e3565b81518110611469576114686130b4565b5b6020026020010181905250808061147f90612d6a565b915050611145565b508091505090565b60606000600260008473ffffffffffffffffffffffffffffffffffffffff1673ffffffffffffffffffffffffffffffffffffffff16815260200190815260200160002080548060200260200160405190810160405280929190818152602001828054801561151c57602002820191906000526020600020905b815481526020019060010190808311611508575b505050505090506000815167ffffffffffffffff8111156115405761153f612482565b5b60405190808252806020026020018201604052801561157957816020015b611566612025565b81526020019060019003908161155e5790505b50905060005b82518110156118cf576001600084838151811061159f5761159e6130b4565b5b6020026020010151815260200190815260200160002060405180610140016040529081600082015481526020016001820180546115db90612c32565b80601f016020809104026020016040519081016040528092919081815260200182805461160790612c32565b80156116545780601f1061162957610100808354040283529160200191611654565b820191906000526020600020905b81548152906001019060200180831161163757829003601f168201915b5050505050815260200160028201805461166d90612c32565b80601f016020809104026020016040519081016040528092919081815260200182805461169990612c32565b80156116e65780601f106116bb576101008083540402835291602001916116e6565b820191906000526020600020905b8154815290600101906020018083116116c957829003601f168201915b5050505050815260200160038201548152602001600482015481526020016005820160009054906101000a900473ffffffffffffffffffffffffffffffffffffffff1673ffffffffffffffffffffffffffffffffffffffff1673ffffffffffffffffffffffffffffffffffffffff1681526020016005820160149054906101000a900460ff16151515158152602001600682018054806020026020016040519081016040528092919081815260200182805480156117f957602002820191906000526020600020905b8160009054906101000a900473ffffffffffffffffffffffffffffffffffffffff1673ffffffffffffffffffffffffffffffffffffffff16815260200190600101908083116117af575b505050505081526020016007820154815260200160088201805461181c90612c32565b80601f016020809104026020016040519081016040528092919081815260200182805461184890612c32565b80156118955780601f1061186a57610100808354040283529160200191611895565b820191906000526020600020905b81548152906001019060200180831161187857829003601f168201915b5050505050815250508282815181106118b1576118b06130b4565b5b602002602001018190525080806118c790612d6a565b91505061157f565b508092505050919050565b6000811180156118ec57506000548111155b61192b576040517f08c379a000000000000000000000000000000000000000000000000000000000815260040161192290613163565b60405180910390fd5b60006001600083815260200190815260200160002090508060050160149054906101000a900460ff16611993576040517f08c379a000000000000000000000000000000000000000000000000000000000815260040161198a906131cf565b60405180910390fd5b348160040160008282546119a791906131ef565b9250508190555060008160050160009054906101000a900473ffffffffffffffffffffffffffffffffffffffff1673ffffffffffffffffffffffffffffffffffffffff16346040516119f890613254565b60006040518083038185875af1925050503d8060008114611a35576040519150601f19603f3d011682016040523d82523d6000602084013e611a3a565b606091505b5050905080611a7e576040517f08c379a0000000000000000000000000000000000000000000000000000000008152600401611a75906132b5565b60405180910390fd5b6003600084815260200190815260200160002060405180604001604052803373ffffffffffffffffffffffffffffffffffffffff16815260200134815250908060018154018082558091505060019003906000526020600020906002020160009091909190915060008201518160000160006101000a81548173ffffffffffffffffffffffffffffffffffffffff021916908373ffffffffffffffffffffffffffffffffffffffff160217905550602082015181600101555050600460003373ffffffffffffffffffffffffffffffffffffffff1673ffffffffffffffffffffffffffffffffffffffff1681526020019081526020016000208390806001815401808255809150506001900390600052602060002001600090919091909150557fe555da28bdb778f65d22794d88927ebaeca03f7de9d1b7d39245bc8fb5ca078a833334604051611bd1939291906132d5565b60405180910390a181600301548260040154101580611bf4575081600701544210155b15611c0357611c0283611c69565b5b505050565b60036020528160005260406000208181548110611c2457600080fd5b9060005260206000209060020201600091509150508060000160009054906101000a900473ffffffffffffffffffffffffffffffffffffffff16908060010154905082565b60006001600083815260200190815260200160002090508060050160149054906101000a900460ff16611cd1576040517f08c379a0000000000000000000000000000000000000000000000000000000008152600401611cc8906131cf565b60405180910390fd5b80600301548160040154101580611cec575080600701544210155b611d2b576040517f08c379a0000000000000000000000000000000000000000000000000000000008152600401611d229061337e565b60405180910390fd5b60008160040154905060008260060180549050905060008183611d4e91906133cd565b905060008284611d5e91906133fe565b905060008367ffffffffffffffff811115611d7c57611d7b612482565b5b604051908082528060200260200182016040528015611daa5781602001602082028036833780820191505090505b50905060005b84811015611f365783828281518110611dcc57611dcb6130b4565b5b6020026020010181815250506000831115611e1c57818181518110611df457611df36130b4565b5b602002602001018051809190611e0990612d6a565b815250508280611e189061342f565b9350505b6000876006018281548110611e3457611e336130b4565b5b9060005260206000200160009054906101000a900473ffffffffffffffffffffffffffffffffffffffff1673ffffffffffffffffffffffffffffffffffffffff16838381518110611e8857611e876130b4565b5b6020026020010151604051611e9c90613254565b60006040518083038185875af1925050503d8060008114611ed9576040519150601f19603f3d011682016040523d82523d6000602084013e611ede565b606091505b5050905080611f22576040517f08c379a0000000000000000000000000000000000000000000000000000000008152600401611f19906132b5565b60405180910390fd5b508080611f2e90612d6a565b915050611db0565b5060008660050160146101000a81548160ff0219169083151502179055507fc800c5d39e8ce985377f5a08f0c8eb3e9c562d566578cfb81d49140df6c563a6878760060183604051611f8a939291906135f3565b60405180910390a150505050505050565b828054828255906000526020600020908101928215612014579160200282015b828111156120135782518260006101000a81548173ffffffffffffffffffffffffffffffffffffffff021916908373ffffffffffffffffffffffffffffffffffffffff16021790555091602001919060010190611fbb565b5b5090506120219190612090565b5090565b6040518061014001604052806000815260200160608152602001606081526020016000815260200160008152602001600073ffffffffffffffffffffffffffffffffffffffff1681526020016000151581526020016060815260200160008152602001606081525090565b5b808211156120a9576000816000905550600101612091565b5090565b6000604051905090565b600080fd5b600080fd5b6000819050919050565b6120d4816120c1565b81146120df57600080fd5b50565b6000813590506120f1816120cb565b92915050565b60006020828403121561210d5761210c6120b7565b5b600061211b848285016120e2565b91505092915050565b61212d816120c1565b82525050565b600081519050919050565b600082825260208201905092915050565b60005b8381101561216d578082015181840152602081019050612152565b60008484015250505050565b6000601f19601f8301169050919050565b600061219582612133565b61219f818561213e565b93506121af81856020860161214f565b6121b881612179565b840191505092915050565b600073ffffffffffffffffffffffffffffffffffffffff82169050919050565b60006121ee826121c3565b9050919050565b6121fe816121e3565b82525050565b60008115159050919050565b61221981612204565b82525050565b600061012082019050612235600083018c612124565b8181036020830152612247818b61218a565b9050818103604083015261225b818a61218a565b905061226a6060830189612124565b6122776080830188612124565b61228460a08301876121f5565b61229160c0830186612210565b61229e60e0830185612124565b8181036101008301526122b1818461218a565b90509a9950505050505050505050565b60006122cc826121c3565b9050919050565b6122dc816122c1565b81146122e757600080fd5b50565b6000813590506122f9816122d3565b92915050565b60008060408385031215612316576123156120b7565b5b6000612324858286016122ea565b9250506020612335858286016120e2565b9150509250929050565b60006020820190506123546000830184612124565b92915050565b600081519050919050565b600082825260208201905092915050565b6000819050602082019050919050565b61238f816122c1565b82525050565b61239e816120c1565b82525050565b6040820160008201516123ba6000850182612386565b5060208201516123cd6020850182612395565b50505050565b60006123df83836123a4565b60408301905092915050565b6000602082019050919050565b60006124038261235a565b61240d8185612365565b935061241883612376565b8060005b8381101561244957815161243088826123d3565b975061243b836123eb565b92505060018101905061241c565b5085935050505092915050565b6000602082019050818103600083015261247081846123f8565b905092915050565b600080fd5b600080fd5b7f4e487b7100000000000000000000000000000000000000000000000000000000600052604160045260246000fd5b6124ba82612179565b810181811067ffffffffffffffff821117156124d9576124d8612482565b5b80604052505050565b60006124ec6120ad565b90506124f882826124b1565b919050565b600067ffffffffffffffff82111561251857612517612482565b5b61252182612179565b9050602081019050919050565b82818337600083830152505050565b600061255061254b846124fd565b6124e2565b90508281526020810184848401111561256c5761256b61247d565b5b61257784828561252e565b509392505050565b600082601f83011261259457612593612478565b5b81356125a484826020860161253d565b91505092915050565b600067ffffffffffffffff8211156125c8576125c7612482565b5b602082029050602081019050919050565b600080fd5b60006125f16125ec846125ad565b6124e2565b90508083825260208201905060208402830185811115612614576126136125d9565b5b835b8181101561263d578061262988826122ea565b845260208401935050602081019050612616565b5050509392505050565b600082601f83011261265c5761265b612478565b5b813561266c8482602086016125de565b91505092915050565b60008060008060008060c08789031215612692576126916120b7565b5b600087013567ffffffffffffffff8111156126b0576126af6120bc565b5b6126bc89828a0161257f565b965050602087013567ffffffffffffffff8111156126dd576126dc6120bc565b5b6126e989828a0161257f565b95505060406126fa89828a016120e2565b945050606087013567ffffffffffffffff81111561271b5761271a6120bc565b5b61272789828a01612647565b935050608061273889828a016120e2565b92505060a087013567ffffffffffffffff811115612759576127586120bc565b5b61276589828a0161257f565b9150509295509295509295565b61277b816122c1565b82525050565b600081519050919050565b600082825260208201905092915050565b6000819050602082019050919050565b60006127b98383612386565b60208301905092915050565b6000602082019050919050565b60006127dd82612781565b6127e7818561278c565b93506127f28361279d565b8060005b8381101561282357815161280a88826127ad565b9750612815836127c5565b9250506001810190506127f6565b5085935050505092915050565b600061010082019050612846600083018b612124565b8181036020830152612858818a61218a565b9050818103604083015261286c818961218a565b905061287b6060830188612124565b6128886080830187612124565b61289560a0830186612772565b6128a260c0830185612210565b81810360e08301526128b481846127d2565b90509998505050505050505050565b6000602082840312156128d9576128d86120b7565b5b60006128e7848285016122ea565b91505092915050565b600081519050919050565b600082825260208201905092915050565b6000819050602082019050919050565b600082825260208201905092915050565b600061293882612133565b612942818561291c565b935061295281856020860161214f565b61295b81612179565b840191505092915050565b61296f816121e3565b82525050565b61297e81612204565b82525050565b600082825260208201905092915050565b60006129a082612781565b6129aa8185612984565b93506129b58361279d565b8060005b838110156129e65781516129cd88826127ad565b97506129d8836127c5565b9250506001810190506129b9565b5085935050505092915050565b600061014083016000830151612a0c6000860182612395565b5060208301518482036020860152612a24828261292d565b91505060408301518482036040860152612a3e828261292d565b9150506060830151612a536060860182612395565b506080830151612a666080860182612395565b5060a0830151612a7960a0860182612966565b5060c0830151612a8c60c0860182612975565b5060e083015184820360e0860152612aa48282612995565b915050610100830151612abb610100860182612395565b50610120830151848203610120860152612ad5828261292d565b9150508091505092915050565b6000612aee83836129f3565b905092915050565b6000602082019050919050565b6000612b0e826128f0565b612b1881856128fb565b935083602082028501612b2a8561290c565b8060005b85811015612b665784840389528151612b478582612ae2565b9450612b5283612af6565b925060208a01995050600181019050612b2e565b50829750879550505050505092915050565b60006020820190508181036000830152612b928184612b03565b905092915050565b60008060408385031215612bb157612bb06120b7565b5b6000612bbf858286016120e2565b9250506020612bd0858286016120e2565b9150509250929050565b6000604082019050612bef6000830185612772565b612bfc6020830184612124565b9392505050565b7f4e487b7100000000000000000000000000000000000000000000000000000000600052602260045260246000fd5b60006002820490506001821680612c4a57607f821691505b602082108103612c5d57612c5c612c03565b5b50919050565b7f4174206c65617374206f6e6520726563697069656e7420726571756972656400600082015250565b6000612c99601f8361213e565b9150612ca482612c63565b602082019050919050565b60006020820190508181036000830152612cc881612c8c565b9050919050565b7f446561646c696e65206d75737420626520696e20746865206675747572650000600082015250565b6000612d05601e8361213e565b9150612d1082612ccf565b602082019050919050565b60006020820190508181036000830152612d3481612cf8565b9050919050565b7f4e487b7100000000000000000000000000000000000000000000000000000000600052601160045260246000fd5b6000612d75826120c1565b91507fffffffffffffffffffffffffffffffffffffffffffffffffffffffffffffffff8203612da757612da6612d3b565b5b600182019050919050565b60008190508160005260206000209050919050565b60006020601f8301049050919050565b600082821b905092915050565b600060088302612e147fffffffffffffffffffffffffffffffffffffffffffffffffffffffffffffffff82612dd7565b612e1e8683612dd7565b95508019841693508086168417925050509392505050565b6000819050919050565b6000612e5b612e56612e51846120c1565b612e36565b6120c1565b9050919050565b6000819050919050565b612e7583612e40565b612e89612e8182612e62565b848454612de4565b825550505050565b600090565b612e9e612e91565b612ea9818484612e6c565b505050565b5b81811015612ecd57612ec2600082612e96565b600181019050612eaf565b5050565b601f821115612f1257612ee381612db2565b612eec84612dc7565b81016020851015612efb578190505b612f0f612f0785612dc7565b830182612eae565b50505b505050565b600082821c905092915050565b6000612f3560001984600802612f17565b1980831691505092915050565b6000612f4e8383612f24565b9150826002028217905092915050565b612f6782612133565b67ffffffffffffffff811115612f8057612f7f612482565b5b612f8a8254612c32565b612f95828285612ed1565b600060209050601f831160018114612fc85760008415612fb6578287015190505b612fc08582612f42565b865550613028565b601f198416612fd686612db2565b60005b82811015612ffe57848901518255600182019150602085019450602081019050612fd9565b8683101561301b5784890151613017601f891682612f24565b8355505b6001600288020188555050505b505050505050565b600060e082019050613045600083018a612124565b8181036020830152613057818961218a565b9050818103604083015261306b818861218a565b905061307a6060830187612124565b6130876080830186612772565b61309460a0830185612124565b81810360c08301526130a6818461218a565b905098975050505050505050565b7f4e487b7100000000000000000000000000000000000000000000000000000000600052603260045260246000fd5b60006130ee826120c1565b91506130f9836120c1565b925082820390508181111561311157613110612d3b565b5b92915050565b7f496e76616c69642063616d706169676e20494400000000000000000000000000600082015250565b600061314d60138361213e565b915061315882613117565b602082019050919050565b6000602082019050818103600083015261317c81613140565b9050919050565b7f43616d706169676e206973206e6f742061637469766500000000000000000000600082015250565b60006131b960168361213e565b91506131c482613183565b602082019050919050565b600060208201905081810360008301526131e8816131ac565b9050919050565b60006131fa826120c1565b9150613205836120c1565b925082820190508082111561321d5761321c612d3b565b5b92915050565b600081905092915050565b50565b600061323e600083613223565b91506132498261322e565b600082019050919050565b600061325f82613231565b9150819050919050565b7f4661696c656420746f2073656e64204574686572000000000000000000000000600082015250565b600061329f60148361213e565b91506132aa82613269565b602082019050919050565b600060208201905081810360008301526132ce81613292565b9050919050565b60006060820190506132ea6000830186612124565b6132f76020830185612772565b6133046040830184612124565b949350505050565b7f476f616c206e6f742072656163686564206f7220646561646c696e65206e6f7460008201527f2072656163686564000000000000000000000000000000000000000000000000602082015250565b600061336860288361213e565b91506133738261330c565b604082019050919050565b600060208201905081810360008301526133978161335b565b9050919050565b7f4e487b7100000000000000000000000000000000000000000000000000000000600052601260045260246000fd5b60006133d8826120c1565b91506133e3836120c1565b9250826133f3576133f261339e565b5b828204905092915050565b6000613409826120c1565b9150613414836120c1565b9250826134245761342361339e565b5b828206905092915050565b600061343a826120c1565b91506000820361344d5761344c612d3b565b5b600182039050919050565b600081549050919050565b60008190508160005260206000209050919050565b60008160001c9050919050565b600073ffffffffffffffffffffffffffffffffffffffff82169050919050565b60006134b86134b383613478565b613485565b9050919050565b60006134cb82546134a5565b9050919050565b6000600182019050919050565b60006134ea82613458565b6134f4818561278c565b93506134ff83613463565b8060005b8381101561353757613514826134bf565b61351e88826127ad565b9750613529836134d2565b925050600181019050613503565b5085935050505092915050565b600081519050919050565b600082825260208201905092915050565b6000819050602082019050919050565b600061357c8383612395565b60208301905092915050565b6000602082019050919050565b60006135a082613544565b6135aa818561354f565b93506135b583613560565b8060005b838110156135e65781516135cd8882613570565b97506135d883613588565b9250506001810190506135b9565b5085935050505092915050565b60006060820190506136086000830186612124565b818103602083015261361a81856134df565b9050818103604083015261362e8184613595565b905094935050505056fea2646970667358221220ba73d771a152cc2f5294de8cda91658be91dc576e566cd74ff10fdb611801bc064736f6c63430008140033",
  "linkReferences": {},
  "deployedLinkReferences": {}
}