{
  "_format": "hh-sol-artifact-1",
  "contractName": "DonationPlatform",
  "sourceName": "contracts/Lock.sol",
  "abi": [
    {
      "anonymous": false,
      "inputs": [
        {
          "indexed": false,
          "internalType": "uint256",
          "name": "id",
          "type": "uint256"
        },
        {
          "indexed": false,
          "internalType": "string",
          "name": "title",
          "type": "string"
        },
        {
          "indexed": false,
          "internalType": "string",
          "name": "description",
          "type": "string"
        },
        {
          "indexed": false,
          "internalType": "uint256",
          "name": "goal",
          "type": "uint256"
        },
        {
          "indexed": false,
          "internalType": "address",
          "name": "owner",
          "type": "address"
        },
        {
          "indexed": false,
          "internalType": "uint256",
          "name": "deadline",
          "type": "uint256"
        },
        {
          "indexed": false,
          "internalType": "string",
          "name": "image",
          "type": "string"
        }
      ],
      "name": "CampaignCreated",
      "type": "event"
    },
    {
      "anonymous": false,
      "inputs": [
        {
          "indexed": false,
          "internalType": "uint256",
          "name": "campaignId",
          "type": "uint256"
        },
        {
          "indexed": false,
          "internalType": "address",
          "name": "donor",
          "type": "address"
        },
        {
          "indexed": false,
          "internalType": "uint256",
          "name": "amount",
          "type": "uint256"
        }
      ],
      "name": "DonationMade",
      "type": "event"
    },
    {
      "anonymous": false,
      "inputs": [
        {
          "indexed": false,
          "internalType": "uint256",
          "name": "campaignId",
          "type": "uint256"
        },
        {
          "indexed": false,
          "internalType": "address[]",
          "name": "recipients",
          "type": "address[]"
        },
        {
          "indexed": false,
          "internalType": "uint256[]",
          "name": "amounts",
          "type": "uint256[]"
        }
      ],
      "name": "FundsDistributed",
      "type": "event"
    },
    {
      "inputs": [],
      "name": "campaignCount",
      "outputs": [
        {
          "internalType": "uint256",
          "name": "",
          "type": "uint256"
        }
      ],
      "stateMutability": "view",
      "type": "function"
    },
    {
      "inputs": [
        {
          "internalType": "uint256",
          "name": "",
          "type": "uint256"
        },
        {
          "internalType": "uint256",
          "name": "",
          "type": "uint256"
        }
      ],
      "name": "campaignDonors",
      "outputs": [
        {
          "internalType": "address",
          "name": "donorAddress",
          "type": "address"
        },
        {
          "internalType": "uint256",
          "name": "amount",
          "type": "uint256"
        }
      ],
      "stateMutability": "view",
      "type": "function"
    },
    {
      "inputs": [
        {
          "internalType": "uint256",
          "name": "",
          "type": "uint256"
        }
      ],
      "name": "campaigns",
      "outputs": [
        {
          "internalType": "uint256",
          "name": "id",
          "type": "uint256"
        },
        {
          "internalType": "string",
          "name": "title",
          "type": "string"
        },
        {
          "internalType": "string",
          "name": "description",
          "type": "string"
        },
        {
          "internalType": "uint256",
          "name": "goal",
          "type": "uint256"
        },
        {
          "internalType": "uint256",
          "name": "raised",
          "type": "uint256"
        },
        {
          "internalType": "address payable",
          "name": "owner",
          "type": "address"
        },
        {
          "internalType": "bool",
          "name": "isActive",
          "type": "bool"
        },
        {
          "internalType": "uint256",
          "name": "deadline",
          "type": "uint256"
        },
        {
          "internalType": "string",
          "name": "image",
          "type": "string"
        }
      ],
      "stateMutability": "view",
      "type": "function"
    },
    {
      "inputs": [
        {
          "internalType": "string",
          "name": "_title",
          "type": "string"
        },
        {
          "internalType": "string",
          "name": "_description",
          "type": "string"
        },
        {
          "internalType": "uint256",
          "name": "_goal",
          "type": "uint256"
        },
        {
          "internalType": "address[]",
          "name": "_recipients",
          "type": "address[]"
        },
        {
          "internalType": "uint256",
          "name": "_deadline",
          "type": "uint256"
        },
        {
          "internalType": "string",
          "name": "_image",
          "type": "string"
        }
      ],
      "name": "createCampaign",
      "outputs": [],
      "stateMutability": "nonpayable",
      "type": "function"
    },
    {
      "inputs": [
        {
          "internalType": "uint256",
          "name": "_campaignId",
          "type": "uint256"
        }
      ],
      "name": "donate",
      "outputs": [],
      "stateMutability": "payable",
      "type": "function"
    },
    {
      "inputs": [],
      "name": "getAllCampaigns",
      "outputs": [
        {
          "components": [
            {
              "internalType": "uint256",
              "name": "id",
              "type": "uint256"
            },
            {
              "internalType": "string",
              "name": "title",
              "type": "string"
            },
            {
              "internalType": "string",
              "name": "description",
              "type": "string"
            },
            {
              "internalType": "uint256",
              "name": "goal",
              "type": "uint256"
            },
            {
              "internalType": "uint256",
              "name": "raised",
              "type": "uint256"
            },
            {
              "internalType": "address payable",
              "name": "owner",
              "type": "address"
            },
            {
              "internalType": "bool",
              "name": "isActive",
              "type": "bool"
            },
            {
              "internalType": "address[]",
              "name": "recipients",
              "type": "address[]"
            },
            {
              "internalType": "uint256",
              "name": "deadline",
              "type": "uint256"
            },
            {
              "internalType": "string",
              "name": "image",
              "type": "string"
            }
          ],
          "internalType": "struct DonationPlatform.Campaign[]",
          "name": "",
          "type": "tuple[]"
        }
      ],
      "stateMutability": "view",
      "type": "function"
    },
    {
      "inputs": [
        {
          "internalType": "uint256",
          "name": "_campaignId",
          "type": "uint256"
        }
      ],
      "name": "getCampaign",
      "outputs": [
        {
          "internalType": "uint256",
          "name": "id",
          "type": "uint256"
        },
        {
          "internalType": "string",
          "name": "title",
          "type": "string"
        },
        {
          "internalType": "string",
          "name": "description",
          "type": "string"
        },
        {
          "internalType": "uint256",
          "name": "goal",
          "type": "uint256"
        },
        {
          "internalType": "uint256",
          "name": "raised",
          "type": "uint256"
        },
        {
          "internalType": "address",
          "name": "owner",
          "type": "address"
        },
        {
          "internalType": "bool",
          "name": "isActive",
          "type": "bool"
        },
        {
          "internalType": "address[]",
          "name": "recipients",
          "type": "address[]"
        }
      ],
      "stateMutability": "view",
      "type": "function"
    },
    {
      "inputs": [
        {
          "internalType": "uint256",
          "name": "_campaignId",
          "type": "uint256"
        }
      ],
      "name": "getCampaignDonors",
      "outputs": [
        {
          "components": [
            {
              "internalType": "address",
              "name": "donorAddress",
              "type": "address"
            },
            {
              "internalType": "uint256",
              "name": "amount",
              "type": "uint256"
            }
          ],
          "internalType": "struct DonationPlatform.Donor[]",
          "name": "",
          "type": "tuple[]"
        }
      ],
      "stateMutability": "view",
      "type": "function"
    },
    {
      "inputs": [
        {
          "internalType": "address",
          "name": "_user",
          "type": "address"
        }
      ],
      "name": "getUserCampaigns",
      "outputs": [
        {
          "components": [
            {
              "internalType": "uint256",
              "name": "id",
              "type": "uint256"
            },
            {
              "internalType": "string",
              "name": "title",
              "type": "string"
            },
            {
              "internalType": "string",
              "name": "description",
              "type": "string"
            },
            {
              "internalType": "uint256",
              "name": "goal",
              "type": "uint256"
            },
            {
              "internalType": "uint256",
              "name": "raised",
              "type": "uint256"
            },
            {
              "internalType": "address payable",
              "name": "owner",
              "type": "address"
            },
            {
              "internalType": "bool",
              "name": "isActive",
              "type": "bool"
            },
            {
              "internalType": "address[]",
              "name": "recipients",
              "type": "address[]"
            },
            {
              "internalType": "uint256",
              "name": "deadline",
              "type": "uint256"
            },
            {
              "internalType": "string",
              "name": "image",
              "type": "string"
            }
          ],
          "internalType": "struct DonationPlatform.Campaign[]",
          "name": "",
          "type": "tuple[]"
        }
      ],
      "stateMutability": "view",
      "type": "function"
    },
    {
      "inputs": [
        {
          "internalType": "address",
          "name": "_user",
          "type": "address"
        }
      ],
      "name": "getUserDonations",
      "outputs": [
        {
          "components": [
            {
              "internalType": "uint256",
              "name": "id",
              "type": "uint256"
            },
            {
              "internalType": "string",
              "name": "title",
              "type": "string"
            },
            {
              "internalType": "string",
              "name": "description",
              "type": "string"
            },
            {
              "internalType": "uint256",
              "name": "goal",
              "type": "uint256"
            },
            {
              "internalType": "uint256",
              "name": "raised",
              "type": "uint256"
            },
            {
              "internalType": "address payable",
              "name": "owner",
              "type": "address"
            },
            {
              "internalType": "bool",
              "name": "isActive",
              "type": "bool"
            },
            {
              "internalType": "address[]",
              "name": "recipients",
              "type": "address[]"
            },
            {
              "internalType": "uint256",
              "name": "deadline",
              "type": "uint256"
            },
            {
              "internalType": "string",
              "name": "image",
              "type": "string"
            }
          ],
          "internalType": "struct DonationPlatform.Campaign[]",
          "name": "",
          "type": "tuple[]"
        }
      ],
      "stateMutability": "view",
      "type": "function"
    },
    {
      "inputs": [
        {
          "internalType": "address",
          "name": "",
          "type": "address"
        },
        {
          "internalType": "uint256",
          "name": "",
          "type": "uint256"
        }
      ],
      "name": "userCampaigns",
      "outputs": [
        {
          "internalType": "uint256",
          "name": "",
          "type": "uint256"
        }
      ],
      "stateMutability": "view",
      "type": "function"
    },
    {
      "inputs": [
        {
          "internalType": "address",
          "name": "",
          "type": "address"
        },
        {
          "internalType": "uint256",
          "name": "",
          "type": "uint256"
        }
      ],
      "name": "userDonations",
      "outputs": [
        {
          "internalType": "uint256",
          "name": "",
          "type": "uint256"
        }
      ],
      "stateMutability": "view",
      "type": "function"
    }
  ],
  "bytecode": "0x608060405234801561001057600080fd5b50613930806100206000396000f3fe6080604052600436106100a75760003560e01c80637274e30d116100645780637274e30d14610215578063732435b21461024057806386cdf6041461027d578063a1e5084c146102a8578063f14faf6f146102e5578063f25e1e9314610301576100a7565b8063141961bc146100ac57806319ac74bd146100f1578063209b7d5f1461012e57806326134a1b1461016b5780634933e631146101945780635598f8cc146101d1575b600080fd5b3480156100b857600080fd5b506100d360048036038101906100ce919061232a565b61033f565b6040516100e899989796959493929190612452565b60405180910390f35b3480156100fd57600080fd5b5061011860048036038101906101139190612532565b610552565b6040516101259190612572565b60405180910390f35b34801561013a57600080fd5b506101556004803603810190610150919061232a565b610583565b6040516101629190612689565b60405180910390f35b34801561017757600080fd5b50610192600480360381019061018d91906128a8565b610655565b005b3480156101a057600080fd5b506101bb60048036038101906101b69190612532565b610910565b6040516101c89190612572565b60405180910390f35b3480156101dd57600080fd5b506101f860048036038101906101f3919061232a565b610941565b60405161020c989796959493929190612a63565b60405180910390f35b34801561022157600080fd5b5061022a610c92565b6040516102379190612572565b60405180910390f35b34801561024c57600080fd5b5061026760048036038101906102629190612af6565b610c98565b6040516102749190612dab565b60405180910390f35b34801561028957600080fd5b506102926110e3565b60405161029f9190612dab565b60405180910390f35b3480156102b457600080fd5b506102cf60048036038101906102ca9190612af6565b61148f565b6040516102dc9190612dab565b60405180910390f35b6102ff60048036038101906102fa919061232a565b6118da565b005b34801561030d57600080fd5b5061032860048036038101906103239190612dcd565b611c08565b604051610336929190612e0d565b60405180910390f35b600160205280600052604060002060009150905080600001549080600101805461036890612e65565b80601f016020809104026020016040519081016040528092919081815260200182805461039490612e65565b80156103e15780601f106103b6576101008083540402835291602001916103e1565b820191906000526020600020905b8154815290600101906020018083116103c457829003601f168201915b5050505050908060020180546103f690612e65565b80601f016020809104026020016040519081016040528092919081815260200182805461042290612e65565b801561046f5780601f106104445761010080835404028352916020019161046f565b820191906000526020600020905b81548152906001019060200180831161045257829003601f168201915b5050505050908060030154908060040154908060050160009054906101000a900473ffffffffffffffffffffffffffffffffffffffff16908060050160149054906101000a900460ff16908060070154908060080180546104cf90612e65565b80601f01602080910402602001604051908101604052809291908181526020018280546104fb90612e65565b80156105485780601f1061051d57610100808354040283529160200191610548565b820191906000526020600020905b81548152906001019060200180831161052b57829003601f168201915b5050505050905089565b6002602052816000526040600020818154811061056e57600080fd5b90600052602060002001600091509150505481565b606060036000838152602001908152602001600020805480602002602001604051908101604052809291908181526020016000905b8282101561064a57838290600052602060002090600202016040518060400160405290816000820160009054906101000a900473ffffffffffffffffffffffffffffffffffffffff1673ffffffffffffffffffffffffffffffffffffffff1673ffffffffffffffffffffffffffffffffffffffff168152602001600182015481525050815260200190600101906105b8565b505050509050919050565b6000835111610699576040517f08c379a000000000000000000000000000000000000000000000000000000000815260040161069090612ee2565b60405180910390fd5b4282116106db576040517f08c379a00000000000000000000000000000000000000000000000000000000081526004016106d290612f4e565b60405180910390fd5b6000808154809291906106ed90612f9d565b91905055506040518061014001604052806000548152602001878152602001868152602001858152602001600081526020013373ffffffffffffffffffffffffffffffffffffffff1681526020016001151581526020018481526020018381526020018281525060016000805481526020019081526020016000206000820151816000015560208201518160010190816107879190613191565b50604082015181600201908161079d9190613191565b50606082015181600301556080820151816004015560a08201518160050160006101000a81548173ffffffffffffffffffffffffffffffffffffffff021916908373ffffffffffffffffffffffffffffffffffffffff16021790555060c08201518160050160146101000a81548160ff02191690831515021790555060e08201518160060190805190602001906108359291906121c4565b5061010082015181600701556101208201518160080190816108579190613191565b50905050600260003373ffffffffffffffffffffffffffffffffffffffff1673ffffffffffffffffffffffffffffffffffffffff16815260200190815260200160002060005490806001815401808255809150506001900390600052602060002001600090919091909150557f7186549a7b50d83ee07166d1e0f7dd7f6526479ac0536a9e8e313e01c214737b6000548787873387876040516109009796959493929190613263565b60405180910390a1505050505050565b6004602052816000526040600020818154811061092c57600080fd5b90600052602060002001600091509150505481565b600060608060008060008060606000600160008b8152602001908152602001600020604051806101400160405290816000820154815260200160018201805461098990612e65565b80601f01602080910402602001604051908101604052809291908181526020018280546109b590612e65565b8015610a025780601f106109d757610100808354040283529160200191610a02565b820191906000526020600020905b8154815290600101906020018083116109e557829003601f168201915b50505050508152602001600282018054610a1b90612e65565b80601f0160208091040260200160405190810160405280929190818152602001828054610a4790612e65565b8015610a945780601f10610a6957610100808354040283529160200191610a94565b820191906000526020600020905b815481529060010190602001808311610a7757829003601f168201915b5050505050815260200160038201548152602001600482015481526020016005820160009054906101000a900473ffffffffffffffffffffffffffffffffffffffff1673ffffffffffffffffffffffffffffffffffffffff1673ffffffffffffffffffffffffffffffffffffffff1681526020016005820160149054906101000a900460ff1615151515815260200160068201805480602002602001604051908101604052809291908181526020018280548015610ba757602002820191906000526020600020905b8160009054906101000a900473ffffffffffffffffffffffffffffffffffffffff1673ffffffffffffffffffffffffffffffffffffffff1681526020019060010190808311610b5d575b5050505050815260200160078201548152602001600882018054610bca90612e65565b80601f0160208091040260200160405190810160405280929190818152602001828054610bf690612e65565b8015610c435780601f10610c1857610100808354040283529160200191610c43565b820191906000526020600020905b815481529060010190602001808311610c2657829003601f168201915b5050505050815250509050806000015181602001518260400151836060015184608001518560a001518660c001518760e001519850985098509850985098509850985050919395975091939597565b60005481565b60606000600460008473ffffffffffffffffffffffffffffffffffffffff1673ffffffffffffffffffffffffffffffffffffffff168152602001908152602001600020805480602002602001604051908101604052809291908181526020018280548015610d2557602002820191906000526020600020905b815481526020019060010190808311610d11575b505050505090506000815167ffffffffffffffff811115610d4957610d486126b5565b5b604051908082528060200260200182016040528015610d8257816020015b610d6f61224e565b815260200190600190039081610d675790505b50905060005b82518110156110d85760016000848381518110610da857610da76132e7565b5b602002602001015181526020019081526020016000206040518061014001604052908160008201548152602001600182018054610de490612e65565b80601f0160208091040260200160405190810160405280929190818152602001828054610e1090612e65565b8015610e5d5780601f10610e3257610100808354040283529160200191610e5d565b820191906000526020600020905b815481529060010190602001808311610e4057829003601f168201915b50505050508152602001600282018054610e7690612e65565b80601f0160208091040260200160405190810160405280929190818152602001828054610ea290612e65565b8015610eef5780601f10610ec457610100808354040283529160200191610eef565b820191906000526020600020905b815481529060010190602001808311610ed257829003601f168201915b5050505050815260200160038201548152602001600482015481526020016005820160009054906101000a900473ffffffffffffffffffffffffffffffffffffffff1673ffffffffffffffffffffffffffffffffffffffff1673ffffffffffffffffffffffffffffffffffffffff1681526020016005820160149054906101000a900460ff161515151581526020016006820180548060200260200160405190810160405280929190818152602001828054801561100257602002820191906000526020600020905b8160009054906101000a900473ffffffffffffffffffffffffffffffffffffffff1673ffffffffffffffffffffffffffffffffffffffff1681526020019060010190808311610fb8575b505050505081526020016007820154815260200160088201805461102590612e65565b80601f016020809104026020016040519081016040528092919081815260200182805461105190612e65565b801561109e5780601f106110735761010080835404028352916020019161109e565b820191906000526020600020905b81548152906001019060200180831161108157829003601f168201915b5050505050815250508282815181106110ba576110b96132e7565b5b602002602001018190525080806110d090612f9d565b915050610d88565b508092505050919050565b60606000805467ffffffffffffffff811115611102576111016126b5565b5b60405190808252806020026020018201604052801561113b57816020015b61112861224e565b8152602001906001900390816111205790505b5090506000600190505b60005481116114875760016000828152602001908152602001600020604051806101400160405290816000820154815260200160018201805461118790612e65565b80601f01602080910402602001604051908101604052809291908181526020018280546111b390612e65565b80156112005780601f106111d557610100808354040283529160200191611200565b820191906000526020600020905b8154815290600101906020018083116111e357829003601f168201915b5050505050815260200160028201805461121990612e65565b80601f016020809104026020016040519081016040528092919081815260200182805461124590612e65565b80156112925780601f1061126757610100808354040283529160200191611292565b820191906000526020600020905b81548152906001019060200180831161127557829003601f168201915b5050505050815260200160038201548152602001600482015481526020016005820160009054906101000a900473ffffffffffffffffffffffffffffffffffffffff1673ffffffffffffffffffffffffffffffffffffffff1673ffffffffffffffffffffffffffffffffffffffff1681526020016005820160149054906101000a900460ff16151515158152602001600682018054806020026020016040519081016040528092919081815260200182805480156113a557602002820191906000526020600020905b8160009054906101000a900473ffffffffffffffffffffffffffffffffffffffff1673ffffffffffffffffffffffffffffffffffffffff168152602001906001019080831161135b575b50505050508152602001600782015481526020016008820180546113c890612e65565b80601f01602080910402602001604051908101604052809291908181526020018280546113f490612e65565b80156114415780601f1061141657610100808354040283529160200191611441565b820191906000526020600020905b81548152906001019060200180831161142457829003601f168201915b505050505081525050826001836114589190613316565b81518110611469576114686132e7565b5b6020026020010181905250808061147f90612f9d565b915050611145565b508091505090565b60606000600260008473ffffffffffffffffffffffffffffffffffffffff1673ffffffffffffffffffffffffffffffffffffffff16815260200190815260200160002080548060200260200160405190810160405280929190818152602001828054801561151c57602002820191906000526020600020905b815481526020019060010190808311611508575b505050505090506000815167ffffffffffffffff8111156115405761153f6126b5565b5b60405190808252806020026020018201604052801561157957816020015b61156661224e565b81526020019060019003908161155e5790505b50905060005b82518110156118cf576001600084838151811061159f5761159e6132e7565b5b6020026020010151815260200190815260200160002060405180610140016040529081600082015481526020016001820180546115db90612e65565b80601f016020809104026020016040519081016040528092919081815260200182805461160790612e65565b80156116545780601f1061162957610100808354040283529160200191611654565b820191906000526020600020905b81548152906001019060200180831161163757829003601f168201915b5050505050815260200160028201805461166d90612e65565b80601f016020809104026020016040519081016040528092919081815260200182805461169990612e65565b80156116e65780601f106116bb576101008083540402835291602001916116e6565b820191906000526020600020905b8154815290600101906020018083116116c957829003601f168201915b5050505050815260200160038201548152602001600482015481526020016005820160009054906101000a900473ffffffffffffffffffffffffffffffffffffffff1673ffffffffffffffffffffffffffffffffffffffff1673ffffffffffffffffffffffffffffffffffffffff1681526020016005820160149054906101000a900460ff16151515158152602001600682018054806020026020016040519081016040528092919081815260200182805480156117f957602002820191906000526020600020905b8160009054906101000a900473ffffffffffffffffffffffffffffffffffffffff1673ffffffffffffffffffffffffffffffffffffffff16815260200190600101908083116117af575b505050505081526020016007820154815260200160088201805461181c90612e65565b80601f016020809104026020016040519081016040528092919081815260200182805461184890612e65565b80156118955780601f1061186a57610100808354040283529160200191611895565b820191906000526020600020905b81548152906001019060200180831161187857829003601f168201915b5050505050815250508282815181106118b1576118b06132e7565b5b602002602001018190525080806118c790612f9d565b91505061157f565b508092505050919050565b6000811180156118ec57506000548111155b61192b576040517f08c379a000000000000000000000000000000000000000000000000000000000815260040161192290613396565b60405180910390fd5b60006001600083815260200190815260200160002090508060050160149054906101000a900460ff16611993576040517f08c379a000000000000000000000000000000000000000000000000000000000815260040161198a90613402565b60405180910390fd5b348160040160008282546119a79190613422565b9250508190555060008160050160009054906101000a900473ffffffffffffffffffffffffffffffffffffffff1673ffffffffffffffffffffffffffffffffffffffff16346040516119f890613487565b60006040518083038185875af1925050503d8060008114611a35576040519150601f19603f3d011682016040523d82523d6000602084013e611a3a565b606091505b5050905080611a7e576040517f08c379a0000000000000000000000000000000000000000000000000000000008152600401611a75906134e8565b60405180910390fd5b6003600084815260200190815260200160002060405180604001604052803373ffffffffffffffffffffffffffffffffffffffff16815260200134815250908060018154018082558091505060019003906000526020600020906002020160009091909190915060008201518160000160006101000a81548173ffffffffffffffffffffffffffffffffffffffff021916908373ffffffffffffffffffffffffffffffffffffffff160217905550602082015181600101555050600460003373ffffffffffffffffffffffffffffffffffffffff1673ffffffffffffffffffffffffffffffffffffffff1681526020019081526020016000208390806001815401808255809150506001900390600052602060002001600090919091909150557fe555da28bdb778f65d22794d88927ebaeca03f7de9d1b7d39245bc8fb5ca078a833334604051611bd193929190613508565b60405180910390a181600301548260040154101580611bf4575081600701544210155b15611c0357611c0283611c69565b5b505050565b60036020528160005260406000208181548110611c2457600080fd5b9060005260206000209060020201600091509150508060000160009054906101000a900473ffffffffffffffffffffffffffffffffffffffff16908060010154905082565b60006001600083815260200190815260200160002090508060050160149054906101000a900460ff16611cd1576040517f08c379a0000000000000000000000000000000000000000000000000000000008152600401611cc890613402565b60405180910390fd5b80600301548160040154101580611cec575080600701544210155b611d2b576040517f08c379a0000000000000000000000000000000000000000000000000000000008152600401611d22906135b1565b60405180910390fd5b60008160050160146101000a81548160ff02191690831515021790555060008160040154905060008260060180549050905060008183611d6b9190613600565b905060008284611d7b9190613631565b9050611dbc6040518060400160405280601181526020017f436f6e74726163742062616c616e63653a00000000000000000000000000000081525047612046565b611dfb6040518060400160405280600d81526020017f546f74616c207261697365643a0000000000000000000000000000000000000081525085612046565b611e3a6040518060400160405280601081526020017f526563697069656e7420636f756e743a0000000000000000000000000000000081525084612046565b60008367ffffffffffffffff811115611e5657611e556126b5565b5b604051908082528060200260200182016040528015611e845781602001602082028036833780820191505090505b50905060005b84811015611fe15783828281518110611ea657611ea56132e7565b5b6020026020010181815250506000831115611ef657818181518110611ece57611ecd6132e7565b5b602002602001018051809190611ee390612f9d565b815250508280611ef290613662565b9350505b611f756040518060400160405280601581526020017f53656e64696e6720746f20726563697069656e743a0000000000000000000000815250886006018381548110611f4557611f446132e7565b5b9060005260206000200160009054906101000a900473ffffffffffffffffffffffffffffffffffffffff166120e2565b611fce6040518060400160405280600781526020017f416d6f756e743a00000000000000000000000000000000000000000000000000815250838381518110611fc157611fc06132e7565b5b6020026020010151612046565b8080611fd990612f9d565b915050611e8a565b5060008660050160146101000a81548160ff0219169083151502179055507fc800c5d39e8ce985377f5a08f0c8eb3e9c562d566578cfb81d49140df6c563a687876006018360405161203593929190613826565b60405180910390a150505050505050565b6120de828260405160240161205c92919061386b565b6040516020818303038152906040527fb60e72cc000000000000000000000000000000000000000000000000000000007bffffffffffffffffffffffffffffffffffffffffffffffffffffffff19166020820180517bffffffffffffffffffffffffffffffffffffffffffffffffffffffff838183161783525050505061217e565b5050565b61217a82826040516024016120f892919061389b565b6040516020818303038152906040527f319af333000000000000000000000000000000000000000000000000000000007bffffffffffffffffffffffffffffffffffffffffffffffffffffffff19166020820180517bffffffffffffffffffffffffffffffffffffffffffffffffffffffff838183161783525050505061217e565b5050565b6121958161218d6121986121b9565b63ffffffff16565b50565b60006a636f6e736f6c652e6c6f679050600080835160208501845afa505050565b6122b9819050919050565b82805482825590600052602060002090810192821561223d579160200282015b8281111561223c5782518260006101000a81548173ffffffffffffffffffffffffffffffffffffffff021916908373ffffffffffffffffffffffffffffffffffffffff160217905550916020019190600101906121e4565b5b50905061224a91906122c3565b5090565b6040518061014001604052806000815260200160608152602001606081526020016000815260200160008152602001600073ffffffffffffffffffffffffffffffffffffffff1681526020016000151581526020016060815260200160008152602001606081525090565b6122c16138cb565b565b5b808211156122dc5760008160009055506001016122c4565b5090565b6000604051905090565b600080fd5b600080fd5b6000819050919050565b612307816122f4565b811461231257600080fd5b50565b600081359050612324816122fe565b92915050565b6000602082840312156123405761233f6122ea565b5b600061234e84828501612315565b91505092915050565b612360816122f4565b82525050565b600081519050919050565b600082825260208201905092915050565b60005b838110156123a0578082015181840152602081019050612385565b60008484015250505050565b6000601f19601f8301169050919050565b60006123c882612366565b6123d28185612371565b93506123e2818560208601612382565b6123eb816123ac565b840191505092915050565b600073ffffffffffffffffffffffffffffffffffffffff82169050919050565b6000612421826123f6565b9050919050565b61243181612416565b82525050565b60008115159050919050565b61244c81612437565b82525050565b600061012082019050612468600083018c612357565b818103602083015261247a818b6123bd565b9050818103604083015261248e818a6123bd565b905061249d6060830189612357565b6124aa6080830188612357565b6124b760a0830187612428565b6124c460c0830186612443565b6124d160e0830185612357565b8181036101008301526124e481846123bd565b90509a9950505050505050505050565b60006124ff826123f6565b9050919050565b61250f816124f4565b811461251a57600080fd5b50565b60008135905061252c81612506565b92915050565b60008060408385031215612549576125486122ea565b5b60006125578582860161251d565b925050602061256885828601612315565b9150509250929050565b60006020820190506125876000830184612357565b92915050565b600081519050919050565b600082825260208201905092915050565b6000819050602082019050919050565b6125c2816124f4565b82525050565b6125d1816122f4565b82525050565b6040820160008201516125ed60008501826125b9565b50602082015161260060208501826125c8565b50505050565b600061261283836125d7565b60408301905092915050565b6000602082019050919050565b60006126368261258d565b6126408185612598565b935061264b836125a9565b8060005b8381101561267c5781516126638882612606565b975061266e8361261e565b92505060018101905061264f565b5085935050505092915050565b600060208201905081810360008301526126a3818461262b565b905092915050565b600080fd5b600080fd5b7f4e487b7100000000000000000000000000000000000000000000000000000000600052604160045260246000fd5b6126ed826123ac565b810181811067ffffffffffffffff8211171561270c5761270b6126b5565b5b80604052505050565b600061271f6122e0565b905061272b82826126e4565b919050565b600067ffffffffffffffff82111561274b5761274a6126b5565b5b612754826123ac565b9050602081019050919050565b82818337600083830152505050565b600061278361277e84612730565b612715565b90508281526020810184848401111561279f5761279e6126b0565b5b6127aa848285612761565b509392505050565b600082601f8301126127c7576127c66126ab565b5b81356127d7848260208601612770565b91505092915050565b600067ffffffffffffffff8211156127fb576127fa6126b5565b5b602082029050602081019050919050565b600080fd5b600061282461281f846127e0565b612715565b905080838252602082019050602084028301858111156128475761284661280c565b5b835b81811015612870578061285c888261251d565b845260208401935050602081019050612849565b5050509392505050565b600082601f83011261288f5761288e6126ab565b5b813561289f848260208601612811565b91505092915050565b60008060008060008060c087890312156128c5576128c46122ea565b5b600087013567ffffffffffffffff8111156128e3576128e26122ef565b5b6128ef89828a016127b2565b965050602087013567ffffffffffffffff8111156129105761290f6122ef565b5b61291c89828a016127b2565b955050604061292d89828a01612315565b945050606087013567ffffffffffffffff81111561294e5761294d6122ef565b5b61295a89828a0161287a565b935050608061296b89828a01612315565b92505060a087013567ffffffffffffffff81111561298c5761298b6122ef565b5b61299889828a016127b2565b9150509295509295509295565b6129ae816124f4565b82525050565b600081519050919050565b600082825260208201905092915050565b6000819050602082019050919050565b60006129ec83836125b9565b60208301905092915050565b6000602082019050919050565b6000612a10826129b4565b612a1a81856129bf565b9350612a25836129d0565b8060005b83811015612a56578151612a3d88826129e0565b9750612a48836129f8565b925050600181019050612a29565b5085935050505092915050565b600061010082019050612a79600083018b612357565b8181036020830152612a8b818a6123bd565b90508181036040830152612a9f81896123bd565b9050612aae6060830188612357565b612abb6080830187612357565b612ac860a08301866129a5565b612ad560c0830185612443565b81810360e0830152612ae78184612a05565b90509998505050505050505050565b600060208284031215612b0c57612b0b6122ea565b5b6000612b1a8482850161251d565b91505092915050565b600081519050919050565b600082825260208201905092915050565b6000819050602082019050919050565b600082825260208201905092915050565b6000612b6b82612366565b612b758185612b4f565b9350612b85818560208601612382565b612b8e816123ac565b840191505092915050565b612ba281612416565b82525050565b612bb181612437565b82525050565b600082825260208201905092915050565b6000612bd3826129b4565b612bdd8185612bb7565b9350612be8836129d0565b8060005b83811015612c19578151612c0088826129e0565b9750612c0b836129f8565b925050600181019050612bec565b5085935050505092915050565b600061014083016000830151612c3f60008601826125c8565b5060208301518482036020860152612c578282612b60565b91505060408301518482036040860152612c718282612b60565b9150506060830151612c8660608601826125c8565b506080830151612c9960808601826125c8565b5060a0830151612cac60a0860182612b99565b5060c0830151612cbf60c0860182612ba8565b5060e083015184820360e0860152612cd78282612bc8565b915050610100830151612cee6101008601826125c8565b50610120830151848203610120860152612d088282612b60565b9150508091505092915050565b6000612d218383612c26565b905092915050565b6000602082019050919050565b6000612d4182612b23565b612d4b8185612b2e565b935083602082028501612d5d85612b3f565b8060005b85811015612d995784840389528151612d7a8582612d15565b9450612d8583612d29565b925060208a01995050600181019050612d61565b50829750879550505050505092915050565b60006020820190508181036000830152612dc58184612d36565b905092915050565b60008060408385031215612de457612de36122ea565b5b6000612df285828601612315565b9250506020612e0385828601612315565b9150509250929050565b6000604082019050612e2260008301856129a5565b612e2f6020830184612357565b9392505050565b7f4e487b7100000000000000000000000000000000000000000000000000000000600052602260045260246000fd5b60006002820490506001821680612e7d57607f821691505b602082108103612e9057612e8f612e36565b5b50919050565b7f4174206c65617374206f6e6520726563697069656e7420726571756972656400600082015250565b6000612ecc601f83612371565b9150612ed782612e96565b602082019050919050565b60006020820190508181036000830152612efb81612ebf565b9050919050565b7f446561646c696e65206d75737420626520696e20746865206675747572650000600082015250565b6000612f38601e83612371565b9150612f4382612f02565b602082019050919050565b60006020820190508181036000830152612f6781612f2b565b9050919050565b7f4e487b7100000000000000000000000000000000000000000000000000000000600052601160045260246000fd5b6000612fa8826122f4565b91507fffffffffffffffffffffffffffffffffffffffffffffffffffffffffffffffff8203612fda57612fd9612f6e565b5b600182019050919050565b60008190508160005260206000209050919050565b60006020601f8301049050919050565b600082821b905092915050565b6000600883026130477fffffffffffffffffffffffffffffffffffffffffffffffffffffffffffffffff8261300a565b613051868361300a565b95508019841693508086168417925050509392505050565b6000819050919050565b600061308e613089613084846122f4565b613069565b6122f4565b9050919050565b6000819050919050565b6130a883613073565b6130bc6130b482613095565b848454613017565b825550505050565b600090565b6130d16130c4565b6130dc81848461309f565b505050565b5b81811015613100576130f56000826130c9565b6001810190506130e2565b5050565b601f8211156131455761311681612fe5565b61311f84612ffa565b8101602085101561312e578190505b61314261313a85612ffa565b8301826130e1565b50505b505050565b600082821c905092915050565b60006131686000198460080261314a565b1980831691505092915050565b60006131818383613157565b9150826002028217905092915050565b61319a82612366565b67ffffffffffffffff8111156131b3576131b26126b5565b5b6131bd8254612e65565b6131c8828285613104565b600060209050601f8311600181146131fb57600084156131e9578287015190505b6131f38582613175565b86555061325b565b601f19841661320986612fe5565b60005b828110156132315784890151825560018201915060208501945060208101905061320c565b8683101561324e578489015161324a601f891682613157565b8355505b6001600288020188555050505b505050505050565b600060e082019050613278600083018a612357565b818103602083015261328a81896123bd565b9050818103604083015261329e81886123bd565b90506132ad6060830187612357565b6132ba60808301866129a5565b6132c760a0830185612357565b81810360c08301526132d981846123bd565b905098975050505050505050565b7f4e487b7100000000000000000000000000000000000000000000000000000000600052603260045260246000fd5b6000613321826122f4565b915061332c836122f4565b925082820390508181111561334457613343612f6e565b5b92915050565b7f496e76616c69642063616d706169676e20494400000000000000000000000000600082015250565b6000613380601383612371565b915061338b8261334a565b602082019050919050565b600060208201905081810360008301526133af81613373565b9050919050565b7f43616d706169676e206973206e6f742061637469766500000000000000000000600082015250565b60006133ec601683612371565b91506133f7826133b6565b602082019050919050565b6000602082019050818103600083015261341b816133df565b9050919050565b600061342d826122f4565b9150613438836122f4565b92508282019050808211156134505761344f612f6e565b5b92915050565b600081905092915050565b50565b6000613471600083613456565b915061347c82613461565b600082019050919050565b600061349282613464565b9150819050919050565b7f4661696c656420746f2073656e64204574686572000000000000000000000000600082015250565b60006134d2601483612371565b91506134dd8261349c565b602082019050919050565b60006020820190508181036000830152613501816134c5565b9050919050565b600060608201905061351d6000830186612357565b61352a60208301856129a5565b6135376040830184612357565b949350505050565b7f476f616c206e6f742072656163686564206f7220646561646c696e65206e6f7460008201527f2072656163686564000000000000000000000000000000000000000000000000602082015250565b600061359b602883612371565b91506135a68261353f565b604082019050919050565b600060208201905081810360008301526135ca8161358e565b9050919050565b7f4e487b7100000000000000000000000000000000000000000000000000000000600052601260045260246000fd5b600061360b826122f4565b9150613616836122f4565b925082613626576136256135d1565b5b828204905092915050565b600061363c826122f4565b9150613647836122f4565b925082613657576136566135d1565b5b828206905092915050565b600061366d826122f4565b9150600082036136805761367f612f6e565b5b600182039050919050565b600081549050919050565b60008190508160005260206000209050919050565b60008160001c9050919050565b600073ffffffffffffffffffffffffffffffffffffffff82169050919050565b60006136eb6136e6836136ab565b6136b8565b9050919050565b60006136fe82546136d8565b9050919050565b6000600182019050919050565b600061371d8261368b565b61372781856129bf565b935061373283613696565b8060005b8381101561376a57613747826136f2565b61375188826129e0565b975061375c83613705565b925050600181019050613736565b5085935050505092915050565b600081519050919050565b600082825260208201905092915050565b6000819050602082019050919050565b60006137af83836125c8565b60208301905092915050565b6000602082019050919050565b60006137d382613777565b6137dd8185613782565b93506137e883613793565b8060005b8381101561381957815161380088826137a3565b975061380b836137bb565b9250506001810190506137ec565b5085935050505092915050565b600060608201905061383b6000830186612357565b818103602083015261384d8185613712565b9050818103604083015261386181846137c8565b9050949350505050565b6000604082019050818103600083015261388581856123bd565b90506138946020830184612357565b9392505050565b600060408201905081810360008301526138b581856123bd565b90506138c460208301846129a5565b9392505050565b7f4e487b7100000000000000000000000000000000000000000000000000000000600052605160045260246000fdfea2646970667358221220efad02d0aba1b3de61fe3110208c02c2b5ee73fbe36590b36e322d36aea9f7b064736f6c63430008140033",
  "linkReferences": {},
  "deployedLinkReferences": {}
}